{
  "_format": "hh-sol-artifact-1",
  "contractName": "SimpleCharity",
  "sourceName": "contracts/SimpleGoFundMe.sol",
  "abi": [
    {
      "inputs": [
        {
          "internalType": "address payable",
          "name": "receiver_",
          "type": "address"
        }
      ],
      "stateMutability": "nonpayable",
      "type": "constructor"
    },
    {
      "inputs": [],
      "name": "deposit",
      "outputs": [],
      "stateMutability": "payable",
      "type": "function"
    },
    {
      "inputs": [],
      "name": "getDonation",
      "outputs": [
        {
          "internalType": "uint256",
          "name": "",
          "type": "uint256"
        }
      ],
      "stateMutability": "view",
      "type": "function"
    },
    {
      "inputs": [],
      "name": "getReceiver",
      "outputs": [
        {
          "internalType": "address",
          "name": "",
          "type": "address"
        }
      ],
      "stateMutability": "view",
      "type": "function"
    },
    {
      "inputs": [],
      "name": "getTopDonator",
      "outputs": [
        {
          "internalType": "address[10]",
          "name": "",
          "type": "address[10]"
        },
        {
          "internalType": "uint256[10]",
          "name": "",
          "type": "uint256[10]"
        }
      ],
      "stateMutability": "view",
      "type": "function"
    },
    {
      "inputs": [],
      "name": "withdraw",
      "outputs": [],
      "stateMutability": "nonpayable",
      "type": "function"
    }
  ],
  "bytecode": "0x608060405234801561001057600080fd5b50604051610dbd380380610dbd8339818101604052810190610032919061008e565b80600260006101000a81548173ffffffffffffffffffffffffffffffffffffffff021916908373ffffffffffffffffffffffffffffffffffffffff16021790555050610100565b600081519050610088816100e9565b92915050565b6000602082840312156100a057600080fd5b60006100ae84828501610079565b91505092915050565b60006100c2826100c9565b9050919050565b600073ffffffffffffffffffffffffffffffffffffffff82169050919050565b6100f2816100b7565b81146100fd57600080fd5b50565b610cae8061010f6000396000f3fe60806040526004361061004a5760003560e01c80633ccfd60b1461004f5780634bf7172914610066578063672814641461009157806398aca922146100bd578063d0e30db0146100e8575b600080fd5b34801561005b57600080fd5b506100646100f2565b005b34801561007257600080fd5b5061007b6101ed565b6040516100889190610acf565b60405180910390f35b34801561009d57600080fd5b506100a6610237565b6040516100b4929190610a84565b60405180910390f35b3480156100c957600080fd5b506100d26104b2565b6040516100df9190610a69565b60405180910390f35b6100f06104dc565b005b3373ffffffffffffffffffffffffffffffffffffffff16600260009054906101000a900473ffffffffffffffffffffffffffffffffffffffff1673ffffffffffffffffffffffffffffffffffffffff1614610182576040517f08c379a000000000000000000000000000000000000000000000000000000000815260040161017990610aaf565b60405180910390fd5b600260009054906101000a900473ffffffffffffffffffffffffffffffffffffffff1673ffffffffffffffffffffffffffffffffffffffff166108fc479081150290604051600060405180830381858888f193505050501580156101ea573d6000803e3d6000fd5b50565b6000600160003373ffffffffffffffffffffffffffffffffffffffff1673ffffffffffffffffffffffffffffffffffffffff16815260200190815260200160002060020154905090565b61023f6108e6565b610247610909565b61024f6108e6565b610257610909565b60008060009054906101000a900473ffffffffffffffffffffffffffffffffffffffff16905060005b600a8161ffff1610156104a457600073ffffffffffffffffffffffffffffffffffffffff168273ffffffffffffffffffffffffffffffffffffffff1614156102c7576104a4565b6000600160008473ffffffffffffffffffffffffffffffffffffffff1673ffffffffffffffffffffffffffffffffffffffff1681526020019081526020016000206040518060600160405290816000820160009054906101000a900473ffffffffffffffffffffffffffffffffffffffff1673ffffffffffffffffffffffffffffffffffffffff1673ffffffffffffffffffffffffffffffffffffffff1681526020016001820160009054906101000a900473ffffffffffffffffffffffffffffffffffffffff1673ffffffffffffffffffffffffffffffffffffffff1673ffffffffffffffffffffffffffffffffffffffff168152602001600282015481525050905082858361ffff16600a8110610409577f4e487b7100000000000000000000000000000000000000000000000000000000600052603260045260246000fd5b602002019073ffffffffffffffffffffffffffffffffffffffff16908173ffffffffffffffffffffffffffffffffffffffff16815250508060400151848361ffff16600a8110610482577f4e487b7100000000000000000000000000000000000000000000000000000000600052603260045260246000fd5b60200201818152505080600001519250508061049d90610bf5565b9050610280565b508282945094505050509091565b6000600260009054906101000a900473ffffffffffffffffffffffffffffffffffffffff16905090565b6000600160003373ffffffffffffffffffffffffffffffffffffffff1673ffffffffffffffffffffffffffffffffffffffff1681526020019081526020016000209050348160020160008282546105339190610b55565b92505081905550600073ffffffffffffffffffffffffffffffffffffffff1660008054906101000a900473ffffffffffffffffffffffffffffffffffffffff1673ffffffffffffffffffffffffffffffffffffffff1614156105d557336000806101000a81548173ffffffffffffffffffffffffffffffffffffffff021916908373ffffffffffffffffffffffffffffffffffffffff160217905550506108e4565b6000808060009054906101000a900473ffffffffffffffffffffffffffffffffffffffff1690505b600a8261ffff161015610892576000600160008373ffffffffffffffffffffffffffffffffffffffff1673ffffffffffffffffffffffffffffffffffffffff168152602001908152602001600020905083600201548160020154111561068a578060000160009054906101000a900473ffffffffffffffffffffffffffffffffffffffff16915050610881565b818460000160006101000a81548173ffffffffffffffffffffffffffffffffffffffff021916908373ffffffffffffffffffffffffffffffffffffffff160217905550600073ffffffffffffffffffffffffffffffffffffffff168160010160009054906101000a900473ffffffffffffffffffffffffffffffffffffffff1673ffffffffffffffffffffffffffffffffffffffff1614610838576000600160008360010160009054906101000a900473ffffffffffffffffffffffffffffffffffffffff1673ffffffffffffffffffffffffffffffffffffffff1673ffffffffffffffffffffffffffffffffffffffff1681526020019081526020016000209050338160000160006101000a81548173ffffffffffffffffffffffffffffffffffffffff021916908373ffffffffffffffffffffffffffffffffffffffff1602179055508160010160009054906101000a900473ffffffffffffffffffffffffffffffffffffffff168560010160006101000a81548173ffffffffffffffffffffffffffffffffffffffff021916908373ffffffffffffffffffffffffffffffffffffffff160217905550505b338160010160006101000a81548173ffffffffffffffffffffffffffffffffffffffff021916908373ffffffffffffffffffffffffffffffffffffffff16021790555050610892565b8161088b90610bf5565b91506105fd565b60008261ffff1614156108e057336000806101000a81548173ffffffffffffffffffffffffffffffffffffffff021916908373ffffffffffffffffffffffffffffffffffffffff1602179055505b5050505b565b604051806101400160405280600a90602082028036833780820191505090505090565b604051806101400160405280600a90602082028036833780820191505090505090565b6000610938838361095c565b60208301905092915050565b60006109508383610a4b565b60208301905092915050565b61096581610bab565b82525050565b61097481610bab565b82525050565b61098381610afe565b61098d8184610b2e565b925061099882610aea565b8060005b838110156109c95781516109b0878261092c565b96506109bb83610b14565b92505060018101905061099c565b505050505050565b6109da81610b09565b6109e48184610b39565b92506109ef82610af4565b8060005b83811015610a20578151610a078782610944565b9650610a1283610b21565b9250506001810190506109f3565b505050505050565b6000610a35600f83610b44565b9150610a4082610c4f565b602082019050919050565b610a5481610beb565b82525050565b610a6381610beb565b82525050565b6000602082019050610a7e600083018461096b565b92915050565b600061028082019050610a9a600083018561097a565b610aa86101408301846109d1565b9392505050565b60006020820190508181036000830152610ac881610a28565b9050919050565b6000602082019050610ae46000830184610a5a565b92915050565b6000819050919050565b6000819050919050565b6000600a9050919050565b6000600a9050919050565b6000602082019050919050565b6000602082019050919050565b600081905092915050565b600081905092915050565b600082825260208201905092915050565b6000610b6082610beb565b9150610b6b83610beb565b9250827fffffffffffffffffffffffffffffffffffffffffffffffffffffffffffffffff03821115610ba057610b9f610c20565b5b828201905092915050565b6000610bb682610bcb565b9050919050565b600061ffff82169050919050565b600073ffffffffffffffffffffffffffffffffffffffff82169050919050565b6000819050919050565b6000610c0082610bbd565b915061ffff821415610c1557610c14610c20565b5b600182019050919050565b7f4e487b7100000000000000000000000000000000000000000000000000000000600052601160045260246000fd5b7f4e6f74205265636569766572212121000000000000000000000000000000000060008201525056fea2646970667358221220ec21a5af7ab8e3f0e1532656e219f6e52c96171356516950e8f494304b5b987f64736f6c63430008040033",
  "linkReferences": {},
  "deployedLinkReferences": {}
}