{
  "_format": "hh-sol-artifact-1",
  "contractName": "YoloDealer",
  "sourceName": "contracts/YoloDealer.sol",
  "abi": [
    {
      "inputs": [],
      "stateMutability": "nonpayable",
      "type": "constructor"
    },
    {
      "anonymous": false,
      "inputs": [
        {
          "indexed": true,
          "internalType": "address",
          "name": "previousOwner",
          "type": "address"
        },
        {
          "indexed": true,
          "internalType": "address",
          "name": "newOwner",
          "type": "address"
        }
      ],
      "name": "OwnershipTransferred",
      "type": "event"
    },
    {
      "anonymous": false,
      "inputs": [
        {
          "indexed": false,
          "internalType": "address",
          "name": "",
          "type": "address"
        },
        {
          "indexed": false,
          "internalType": "address",
          "name": "",
          "type": "address"
        }
      ],
      "name": "YoloLotCreated",
      "type": "event"
    },
    {
      "inputs": [],
      "name": "clearRNG",
      "outputs": [],
      "stateMutability": "nonpayable",
      "type": "function"
    },
    {
      "inputs": [],
      "name": "getYoloLottery",
      "outputs": [],
      "stateMutability": "nonpayable",
      "type": "function"
    },
    {
      "inputs": [],
      "name": "owner",
      "outputs": [
        {
          "internalType": "address",
          "name": "",
          "type": "address"
        }
      ],
      "stateMutability": "view",
      "type": "function"
    },
    {
      "inputs": [],
      "name": "renounceOwnership",
      "outputs": [],
      "stateMutability": "nonpayable",
      "type": "function"
    },
    {
      "inputs": [
        {
          "internalType": "uint256",
          "name": "capacity_",
          "type": "uint256"
        },
        {
          "internalType": "bool",
          "name": "preserve",
          "type": "bool"
        }
      ],
      "name": "setRNGCapacity",
      "outputs": [],
      "stateMutability": "nonpayable",
      "type": "function"
    },
    {
      "inputs": [
        {
          "internalType": "enum YoloRandomProvider",
          "name": "rngProvider_",
          "type": "uint8"
        }
      ],
      "name": "setRandomProvider",
      "outputs": [],
      "stateMutability": "nonpayable",
      "type": "function"
    },
    {
      "inputs": [
        {
          "internalType": "address",
          "name": "yoloCoin_",
          "type": "address"
        }
      ],
      "name": "setYoloCoin",
      "outputs": [],
      "stateMutability": "nonpayable",
      "type": "function"
    },
    {
      "inputs": [
        {
          "internalType": "address",
          "name": "newOwner",
          "type": "address"
        }
      ],
      "name": "transferOwnership",
      "outputs": [],
      "stateMutability": "nonpayable",
      "type": "function"
    }
  ],
  "bytecode": "0x608060405234801561001057600080fd5b5061002d61002261003260201b60201c565b61003a60201b60201c565b6100fe565b600033905090565b60008060009054906101000a900473ffffffffffffffffffffffffffffffffffffffff169050816000806101000a81548173ffffffffffffffffffffffffffffffffffffffff021916908373ffffffffffffffffffffffffffffffffffffffff1602179055508173ffffffffffffffffffffffffffffffffffffffff168173ffffffffffffffffffffffffffffffffffffffff167f8be0079c531659141344cd1fd0a4f28419497f9722a3daafe3b4186f6b6457e060405160405180910390a35050565b6158e88061010d6000396000f3fe60806040523480156200001157600080fd5b5060043610620000945760003560e01c8063b45180a21162000063578063b45180a21462000107578063cba92ae41462000113578063ebaa6e57146200011f578063f2fde38b146200013f5762000094565b8063571511511462000099578063715018a614620000b95780638da5cb5b14620000c557806393ca26d114620000e7575b600080fd5b620000b76004803603810190620000b1919062000dd3565b6200015f565b005b620000c3620001bd565b005b620000cf620001d5565b604051620000de919062000f14565b60405180910390f35b620001056004803603810190620000ff919062000d7b565b620001fe565b005b620001116200024c565b005b6200011d62000268565b005b6200013d600480360381019062000137919062000dff565b6200038f565b005b6200015d600480360381019062000157919062000d7b565b620004eb565b005b6200016962000576565b80600160146101000a81548160ff02191690836001811115620001b5577f4e487b7100000000000000000000000000000000000000000000000000000000600052602160045260246000fd5b021790555050565b620001c762000576565b620001d36000620005fb565b565b60008060009054906101000a900473ffffffffffffffffffffffffffffffffffffffff16905090565b6200020862000576565b80600160006101000a81548173ffffffffffffffffffffffffffffffffffffffff021916908373ffffffffffffffffffffffffffffffffffffffff16021790555050565b6200025662000576565b6002600062000266919062000c0d565b565b6200027262000576565b60006200027e620006bf565b9050600081600160009054906101000a900473ffffffffffffffffffffffffffffffffffffffff16604051620002b49062000c30565b620002c192919062000f31565b604051809103906000f080158015620002de573d6000803e3d6000fd5b5090508173ffffffffffffffffffffffffffffffffffffffff166363a579d5826040518263ffffffff1660e01b81526004016200031c919062000f14565b600060405180830381600087803b1580156200033757600080fd5b505af11580156200034c573d6000803e3d6000fd5b505050507fac39f3a47bd2265f37c5936f3090339a30eec33327ec55c8bf712b7ad2ce504e33826040516200038392919062000f31565b60405180910390a15050565b6200039962000576565b808015620003ac57506000600280549050115b15620004565760006001600280549050620003c8919062001019565b90505b8281106200044f57600281815481106200040e577f4e487b7100000000000000000000000000000000000000000000000000000000600052603260045260246000fd5b9060005260206000200160006101000a81549073ffffffffffffffffffffffffffffffffffffffff02191690558062000447906200109e565b9050620003cb565b50620004e0565b8167ffffffffffffffff81111562000497577f4e487b7100000000000000000000000000000000000000000000000000000000600052604160045260246000fd5b604051908082528060200260200182016040528015620004c65781602001602082028036833780820191505090505b5060029080519060200190620004de92919062000c3e565b505b816003819055505050565b620004f562000576565b600073ffffffffffffffffffffffffffffffffffffffff168173ffffffffffffffffffffffffffffffffffffffff16141562000568576040517f08c379a00000000000000000000000000000000000000000000000000000000081526004016200055f9062000f80565b60405180910390fd5b6200057381620005fb565b50565b6200058062000a16565b73ffffffffffffffffffffffffffffffffffffffff16620005a0620001d5565b73ffffffffffffffffffffffffffffffffffffffff1614620005f9576040517f08c379a0000000000000000000000000000000000000000000000000000000008152600401620005f09062000fe6565b60405180910390fd5b565b60008060009054906101000a900473ffffffffffffffffffffffffffffffffffffffff169050816000806101000a81548173ffffffffffffffffffffffffffffffffffffffff021916908373ffffffffffffffffffffffffffffffffffffffff1602179055508173ffffffffffffffffffffffffffffffffffffffff168173ffffffffffffffffffffffffffffffffffffffff167f8be0079c531659141344cd1fd0a4f28419497f9722a3daafe3b4186f6b6457e060405160405180910390a35050565b6000620006cb62000576565b60006003541162000713576040517f08c379a00000000000000000000000000000000000000000000000000000000081526004016200070a9062000fa2565b60405180910390fd5b60005b600354811015620009c957600073ffffffffffffffffffffffffffffffffffffffff166002828154811062000774577f4e487b7100000000000000000000000000000000000000000000000000000000600052603260045260246000fd5b9060005260206000200160009054906101000a900473ffffffffffffffffffffffffffffffffffffffff1673ffffffffffffffffffffffffffffffffffffffff16141562000859576000620007c862000a1e565b9050806002838154811062000806577f4e487b7100000000000000000000000000000000000000000000000000000000600052603260045260246000fd5b9060005260206000200160006101000a81548173ffffffffffffffffffffffffffffffffffffffff021916908373ffffffffffffffffffffffffffffffffffffffff160217905550809250505062000a13565b6002818154811062000894577f4e487b7100000000000000000000000000000000000000000000000000000000600052603260045260246000fd5b9060005260206000200160009054906101000a900473ffffffffffffffffffffffffffffffffffffffff1673ffffffffffffffffffffffffffffffffffffffff1663856c71dd6040518163ffffffff1660e01b815260040160206040518083038186803b1580156200090557600080fd5b505afa1580156200091a573d6000803e3d6000fd5b505050506040513d601f19601f8201168201806040525081019062000940919062000da7565b15620009b5576002818154811062000981577f4e487b7100000000000000000000000000000000000000000000000000000000600052603260045260246000fd5b9060005260206000200160009054906101000a900473ffffffffffffffffffffffffffffffffffffffff1691505062000a13565b80620009c190620010cd565b905062000716565b50600062000a0e576040517f08c379a000000000000000000000000000000000000000000000000000000000815260040162000a059062000f5e565b60405180910390fd5b600090505b90565b600033905090565b600062000a2a62000576565b6000600181111562000a65577f4e487b7100000000000000000000000000000000000000000000000000000000600052602160045260246000fd5b600160149054906101000a900460ff16600181111562000aae577f4e487b7100000000000000000000000000000000000000000000000000000000600052602160045260246000fd5b141562000af6573060405162000ac49062000ccd565b62000ad0919062000f14565b604051809103906000f08015801562000aed573d6000803e3d6000fd5b50905062000c0a565b60018081111562000b30577f4e487b7100000000000000000000000000000000000000000000000000000000600052602160045260246000fd5b600160149054906101000a900460ff16600181111562000b79577f4e487b7100000000000000000000000000000000000000000000000000000000600052602160045260246000fd5b141562000bc1573060405162000b8f9062000cdb565b62000b9b919062000f14565b604051809103906000f08015801562000bb8573d6000803e3d6000fd5b50905062000c0a565b600062000c05576040517f08c379a000000000000000000000000000000000000000000000000000000000815260040162000bfc9062000fc4565b60405180910390fd5b600090505b90565b508054600082559060005260206000209081019062000c2d919062000ce9565b50565b61190780620012c383390190565b82805482825590600052602060002090810192821562000cba579160200282015b8281111562000cb95782518260006101000a81548173ffffffffffffffffffffffffffffffffffffffff021916908373ffffffffffffffffffffffffffffffffffffffff1602179055509160200191906001019062000c5f565b5b50905062000cc9919062000ce9565b5090565b610a318062002bca83390190565b6122b880620035fb83390190565b5b8082111562000d0457600081600090555060010162000cea565b5090565b60008135905062000d198162001263565b92915050565b60008135905062000d30816200127d565b92915050565b60008151905062000d47816200127d565b92915050565b60008135905062000d5e8162001297565b92915050565b60008135905062000d7581620012a8565b92915050565b60006020828403121562000d8e57600080fd5b600062000d9e8482850162000d08565b91505092915050565b60006020828403121562000dba57600080fd5b600062000dca8482850162000d36565b91505092915050565b60006020828403121562000de657600080fd5b600062000df68482850162000d4d565b91505092915050565b6000806040838503121562000e1357600080fd5b600062000e238582860162000d64565b925050602062000e368582860162000d1f565b9150509250929050565b62000e4b8162001054565b82525050565b600062000e6060278362001008565b915062000e6d826200114a565b604082019050919050565b600062000e8760268362001008565b915062000e948262001199565b604082019050919050565b600062000eae60158362001008565b915062000ebb82620011e8565b602082019050919050565b600062000ed560138362001008565b915062000ee28262001211565b602082019050919050565b600062000efc60208362001008565b915062000f09826200123a565b602082019050919050565b600060208201905062000f2b600083018462000e40565b92915050565b600060408201905062000f48600083018562000e40565b62000f57602083018462000e40565b9392505050565b6000602082019050818103600083015262000f798162000e51565b9050919050565b6000602082019050818103600083015262000f9b8162000e78565b9050919050565b6000602082019050818103600083015262000fbd8162000e9f565b9050919050565b6000602082019050818103600083015262000fdf8162000ec6565b9050919050565b60006020820190508181036000830152620010018162000eed565b9050919050565b600082825260208201905092915050565b6000620010268262001094565b9150620010338362001094565b9250828210156200104957620010486200111b565b5b828203905092915050565b6000620010618262001074565b9050919050565b60008115159050919050565b600073ffffffffffffffffffffffffffffffffffffffff82169050919050565b6000819050919050565b6000620010ab8262001094565b91506000821415620010c257620010c16200111b565b5b600182039050919050565b6000620010da8262001094565b91507fffffffffffffffffffffffffffffffffffffffffffffffffffffffffffffffff82141562001110576200110f6200111b565b5b600182019050919050565b7f4e487b7100000000000000000000000000000000000000000000000000000000600052601160045260246000fd5b7f43617061636974792066756c6c2e2043616e6e6f742072657175657374206d6f60008201527f726520524e477300000000000000000000000000000000000000000000000000602082015250565b7f4f776e61626c653a206e6577206f776e657220697320746865207a65726f206160008201527f6464726573730000000000000000000000000000000000000000000000000000602082015250565b7f536574206361706369747920746f206265203e20300000000000000000000000600082015250565b7f556e6b6e6f7720524e472070726f766964657200000000000000000000000000600082015250565b7f4f776e61626c653a2063616c6c6572206973206e6f7420746865206f776e6572600082015250565b6200126e8162001054565b81146200127a57600080fd5b50565b620012888162001068565b81146200129457600080fd5b50565b60028110620012a557600080fd5b50565b620012b38162001094565b8114620012bf57600080fd5b5056fe60806040523480156200001157600080fd5b50604051620019073803806200190783398181016040528101906200003791906200012f565b81600460006101000a81548173ffffffffffffffffffffffffffffffffffffffff021916908373ffffffffffffffffffffffffffffffffffffffff160217905550806000806101000a81548173ffffffffffffffffffffffffffffffffffffffff021916908373ffffffffffffffffffffffffffffffffffffffff1602179055504260058190555062093a80600554620000d2919062000170565b6006819055506001600960006101000a81548160ff021916908360ff1602179055506005600960016101000a81548160ff021916908360ff160217905550505062000254565b60008151905062000129816200023a565b92915050565b600080604083850312156200014357600080fd5b6000620001538582860162000118565b9250506020620001668582860162000118565b9150509250929050565b60006200017d8262000201565b91506200018a8362000201565b9250827fffffffffffffffffffffffffffffffffffffffffffffffffffffffffffffffff03821115620001c257620001c16200020b565b5b828201905092915050565b6000620001da82620001e1565b9050919050565b600073ffffffffffffffffffffffffffffffffffffffff82169050919050565b6000819050919050565b7f4e487b7100000000000000000000000000000000000000000000000000000000600052601160045260246000fd5b6200024581620001cd565b81146200025157600080fd5b50565b6116a380620002646000396000f3fe608060405234801561001057600080fd5b506004361061007d5760003560e01c80637022b58e1161005b5780637022b58e146100b457806384e78c6d146100be578063a59f3e0c146100dc578063afce07c9146100f85761007d565b80630eecae21146100825780632d8ed84a1461008c5780633ccfd60b146100aa575b600080fd5b61008a610114565b005b610094610278565b6040516100a191906111f4565b60405180910390f35b6100b2610282565b005b6100bc6103ce565b005b6100c661049f565b6040516100d391906111f4565b60405180910390f35b6100f660048036038101906100f1919061103b565b6104e6565b005b610112600480360381019061010d919061108d565b6107b6565b005b60065442101561012357600080fd5b600060085414610168576040517f08c379a000000000000000000000000000000000000000000000000000000000815260040161015f906111b4565b60405180910390fd5b6000600960009054906101000a900460ff16600960019054906101000a900460ff1661019491906112e2565b9050600460009054906101000a900473ffffffffffffffffffffffffffffffffffffffff1673ffffffffffffffffffffffffffffffffffffffff16639fcb5bf0826040518263ffffffff1660e01b81526004016101f1919061120f565b602060405180830381600087803b15801561020b57600080fd5b505af115801561021f573d6000803e3d6000fd5b505050506040513d601f19601f820116820180604052508101906102439190611064565b6008819055507f5481545cf36f449b134c6b9be8be88caac3906eae0bc0e444e9fc2b23d3e3b5960405160405180910390a150565b6000600654905090565b60065442101561029157600080fd5b6000600760003373ffffffffffffffffffffffffffffffffffffffff1673ffffffffffffffffffffffffffffffffffffffff16815260200190815260200160002054116102dd57600080fd5b60008054906101000a900473ffffffffffffffffffffffffffffffffffffffff1673ffffffffffffffffffffffffffffffffffffffff166323b872dd3033600760003373ffffffffffffffffffffffffffffffffffffffff1673ffffffffffffffffffffffffffffffffffffffff168152602001908152602001600020546040518463ffffffff1660e01b81526004016103799392919061117d565b602060405180830381600087803b15801561039357600080fd5b505af11580156103a7573d6000803e3d6000fd5b505050506040513d601f19601f820116820180604052508101906103cb9190611012565b50565b6006544210156103dd57600080fd5b6000600460009054906101000a900473ffffffffffffffffffffffffffffffffffffffff1673ffffffffffffffffffffffffffffffffffffffff1663b37217a46008546040518263ffffffff1660e01b815260040161043c91906111f4565b60006040518083038186803b15801561045457600080fd5b505afa158015610468573d6000803e3d6000fd5b505050506040513d6000823e3d601f19601f820116820180604052508101906104919190610fd1565b905061049c8161083a565b50565b6000600160003373ffffffffffffffffffffffffffffffffffffffff1673ffffffffffffffffffffffffffffffffffffffff16815260200190815260200160002054905090565b60065442106104f457600080fd5b60008060009054906101000a900473ffffffffffffffffffffffffffffffffffffffff1673ffffffffffffffffffffffffffffffffffffffff1663dd62ed3e33306040518363ffffffff1660e01b8152600401610552929190611154565b60206040518083038186803b15801561056a57600080fd5b505afa15801561057e573d6000803e3d6000fd5b505050506040513d601f19601f820116820180604052508101906105a29190611064565b9050818110156105e7576040517f08c379a00000000000000000000000000000000000000000000000000000000081526004016105de906111d4565b60405180910390fd5b60008054906101000a900473ffffffffffffffffffffffffffffffffffffffff1673ffffffffffffffffffffffffffffffffffffffff166323b872dd3330856040518463ffffffff1660e01b81526004016106449392919061117d565b602060405180830381600087803b15801561065e57600080fd5b505af1158015610672573d6000803e3d6000fd5b505050506040513d601f19601f820116820180604052508101906106969190611012565b506000600160003373ffffffffffffffffffffffffffffffffffffffff1673ffffffffffffffffffffffffffffffffffffffff168152602001908152602001600020541415610743576002339080600181540180825580915050600190039060005260206000200160009091909190916101000a81548173ffffffffffffffffffffffffffffffffffffffff021916908373ffffffffffffffffffffffffffffffffffffffff1602179055505b81600160003373ffffffffffffffffffffffffffffffffffffffff1673ffffffffffffffffffffffffffffffffffffffff1681526020019081526020016000206000828254610792919061128c565b9250508190555081600360008282546107ab919061128c565b925050819055505050565b3373ffffffffffffffffffffffffffffffffffffffff16600460009054906101000a900473ffffffffffffffffffffffffffffffffffffffff1673ffffffffffffffffffffffffffffffffffffffff161461081057600080fd5b60065442101561081f57600080fd5b816008541461082d57600080fd5b6108368161083a565b5050565b6000600960009054906101000a900460ff16600960019054906101000a900460ff1661086691906112e2565b90508060ff168251146108a2577f4e487b7100000000000000000000000000000000000000000000000000000000600052600160045260246000fd5b600060028054905067ffffffffffffffff8111156108e9577f4e487b7100000000000000000000000000000000000000000000000000000000600052604160045260246000fd5b6040519080825280602002602001820160405280156109175781602001602082028036833780820191505090505b5090506000805b600280549050811015610a33576001600060028381548110610969577f4e487b7100000000000000000000000000000000000000000000000000000000600052603260045260246000fd5b9060005260206000200160009054906101000a900473ffffffffffffffffffffffffffffffffffffffff1673ffffffffffffffffffffffffffffffffffffffff1673ffffffffffffffffffffffffffffffffffffffff16815260200190815260200160002054826109da919061128c565b915081838281518110610a16577f4e487b7100000000000000000000000000000000000000000000000000000000600052603260045260246000fd5b60200260200101818152505080610a2c906114ab565b905061091e565b506000600960009054906101000a900460ff16600a610a5291906113a4565b60ff166009600354610a64919061134a565b610a6e9190611319565b905060005b600960009054906101000a900460ff1660ff168160ff161015610bae576000600354878360ff1681518110610ad1577f4e487b7100000000000000000000000000000000000000000000000000000000600052603260045260246000fd5b6020026020010151610ae3919061151e565b90506000610af18683610d26565b9050836007600060028481548110610b32577f4e487b7100000000000000000000000000000000000000000000000000000000600052603260045260246000fd5b9060005260206000200160009054906101000a900473ffffffffffffffffffffffffffffffffffffffff1673ffffffffffffffffffffffffffffffffffffffff1673ffffffffffffffffffffffffffffffffffffffff16815260200190815260200160002081905550505080610ba7906114f4565b9050610a73565b50600960019054906101000a900460ff16600a610bcb91906113a4565b60ff16600354610bdb9190611319565b90506000600960009054906101000a900460ff1690505b8460ff168160ff161015610d1e576000600354878360ff1681518110610c41577f4e487b7100000000000000000000000000000000000000000000000000000000600052603260045260246000fd5b6020026020010151610c53919061151e565b90506000610c618683610d26565b9050836007600060028481548110610ca2577f4e487b7100000000000000000000000000000000000000000000000000000000600052603260045260246000fd5b9060005260206000200160009054906101000a900473ffffffffffffffffffffffffffffffffffffffff1673ffffffffffffffffffffffffffffffffffffffff1673ffffffffffffffffffffffffffffffffffffffff16815260200190815260200160002081905550505080610d17906114f4565b9050610bf2565b505050505050565b60008083511415610d3a5760009050610e3a565b600080845190505b80821015610dbe576000610d568383610e40565b905084868281518110610d92577f4e487b7100000000000000000000000000000000000000000000000000000000600052603260045260246000fd5b60200260200101511115610da857809150610db8565b600181610db5919061128c565b92505b50610d42565b600082118015610e1957508385600184610dd891906113df565b81518110610e0f577f4e487b7100000000000000000000000000000000000000000000000000000000600052603260045260246000fd5b6020026020010151145b15610e3457600182610e2b91906113df565b92505050610e3a565b81925050505b92915050565b60006002828418610e519190611319565b828416610e5e919061128c565b905092915050565b6000610e79610e748461124f565b61122a565b90508083825260208201905082856020860282011115610e9857600080fd5b60005b85811015610ec85781610eae8882610fa7565b845260208401935060208301925050600181019050610e9b565b5050509392505050565b6000610ee5610ee08461124f565b61122a565b90508083825260208201905082856020860282011115610f0457600080fd5b60005b85811015610f345781610f1a8882610fbc565b845260208401935060208301925050600181019050610f07565b5050509392505050565b600082601f830112610f4f57600080fd5b8135610f5f848260208601610e66565b91505092915050565b600082601f830112610f7957600080fd5b8151610f89848260208601610ed2565b91505092915050565b600081519050610fa18161163f565b92915050565b600081359050610fb681611656565b92915050565b600081519050610fcb81611656565b92915050565b600060208284031215610fe357600080fd5b600082015167ffffffffffffffff811115610ffd57600080fd5b61100984828501610f68565b91505092915050565b60006020828403121561102457600080fd5b600061103284828501610f92565b91505092915050565b60006020828403121561104d57600080fd5b600061105b84828501610fa7565b91505092915050565b60006020828403121561107657600080fd5b600061108484828501610fbc565b91505092915050565b600080604083850312156110a057600080fd5b60006110ae85828601610fa7565b925050602083013567ffffffffffffffff8111156110cb57600080fd5b6110d785828601610f3e565b9150509250929050565b6110ea81611413565b82525050565b60006110fd60128361127b565b9150611108826115ed565b602082019050919050565b600061112060198361127b565b915061112b82611616565b602082019050919050565b61113f81611451565b82525050565b61114e81611468565b82525050565b600060408201905061116960008301856110e1565b61117660208301846110e1565b9392505050565b600060608201905061119260008301866110e1565b61119f60208301856110e1565b6111ac6040830184611136565b949350505050565b600060208201905081810360008301526111cd816110f0565b9050919050565b600060208201905081810360008301526111ed81611113565b9050919050565b60006020820190506112096000830184611136565b92915050565b60006020820190506112246000830184611145565b92915050565b6000611234611245565b9050611240828261147a565b919050565b6000604051905090565b600067ffffffffffffffff82111561126a576112696115ad565b5b602082029050602081019050919050565b600082825260208201905092915050565b600061129782611451565b91506112a283611451565b9250827fffffffffffffffffffffffffffffffffffffffffffffffffffffffffffffffff038211156112d7576112d661154f565b5b828201905092915050565b60006112ed8261145b565b91506112f88361145b565b92508260ff0382111561130e5761130d61154f565b5b828201905092915050565b600061132482611451565b915061132f83611451565b92508261133f5761133e61157e565b5b828204905092915050565b600061135582611451565b915061136083611451565b9250817fffffffffffffffffffffffffffffffffffffffffffffffffffffffffffffffff04831182151516156113995761139861154f565b5b828202905092915050565b60006113af8261145b565b91506113ba8361145b565b92508160ff04831182151516156113d4576113d361154f565b5b828202905092915050565b60006113ea82611451565b91506113f583611451565b9250828210156114085761140761154f565b5b828203905092915050565b600061141e82611431565b9050919050565b60008115159050919050565b600073ffffffffffffffffffffffffffffffffffffffff82169050919050565b6000819050919050565b600060ff82169050919050565b60006114738261145b565b9050919050565b611483826115dc565b810181811067ffffffffffffffff821117156114a2576114a16115ad565b5b80604052505050565b60006114b682611451565b91507fffffffffffffffffffffffffffffffffffffffffffffffffffffffffffffffff8214156114e9576114e861154f565b5b600182019050919050565b60006114ff8261145b565b915060ff8214156115135761151261154f565b5b600182019050919050565b600061152982611451565b915061153483611451565b9250826115445761154361157e565b5b828206905092915050565b7f4e487b7100000000000000000000000000000000000000000000000000000000600052601160045260246000fd5b7f4e487b7100000000000000000000000000000000000000000000000000000000600052601260045260246000fd5b7f4e487b7100000000000000000000000000000000000000000000000000000000600052604160045260246000fd5b6000601f19601f8301169050919050565b7f43616e206f6e6c792064726177206f6e63650000000000000000000000000000600082015250565b7f436865636b2074686520746f6b656e20616c6c6f77616e636500000000000000600082015250565b61164881611425565b811461165357600080fd5b50565b61165f81611451565b811461166a57600080fd5b5056fea26469706673582212206a0c03c0ec1a994ad22e61e4a5537644e4ea1ecdc984c902b6c301468655237f64736f6c63430008040033608060405234801561001057600080fd5b50604051610a31380380610a3183398181016040528101906100329190610090565b8080600160006101000a81548173ffffffffffffffffffffffffffffffffffffffff021916908373ffffffffffffffffffffffffffffffffffffffff1602179055505050610102565b60008151905061008a816100eb565b92915050565b6000602082840312156100a257600080fd5b60006100b08482850161007b565b91505092915050565b60006100c4826100cb565b9050919050565b600073ffffffffffffffffffffffffffffffffffffffff82169050919050565b6100f4816100b9565b81146100ff57600080fd5b50565b610920806101116000396000f3fe608060405234801561001057600080fd5b506004361061004c5760003560e01c806363a579d514610051578063856c71dd1461006d5780639fcb5bf01461008b578063b37217a4146100bb575b600080fd5b61006b60048036038101906100669190610567565b6100eb565b005b610075610188565b60405161008291906106d9565b60405180910390f35b6100a560048036038101906100a09190610590565b610239565b6040516100b2919061072f565b60405180910390f35b6100d560048036038101906100d091906105b9565b61042c565b6040516100e291906106b7565b60405180910390f35b600160009054906101000a900473ffffffffffffffffffffffffffffffffffffffff1673ffffffffffffffffffffffffffffffffffffffff163373ffffffffffffffffffffffffffffffffffffffff161461014557600080fd5b806000806101000a81548173ffffffffffffffffffffffffffffffffffffffff021916908373ffffffffffffffffffffffffffffffffffffffff16021790555050565b6000600160009054906101000a900473ffffffffffffffffffffffffffffffffffffffff1673ffffffffffffffffffffffffffffffffffffffff163373ffffffffffffffffffffffffffffffffffffffff16146101e457600080fd5b600073ffffffffffffffffffffffffffffffffffffffff1660008054906101000a900473ffffffffffffffffffffffffffffffffffffffff1673ffffffffffffffffffffffffffffffffffffffff1614905090565b60008060009054906101000a900473ffffffffffffffffffffffffffffffffffffffff1673ffffffffffffffffffffffffffffffffffffffff163373ffffffffffffffffffffffffffffffffffffffff16146102ca576040517f08c379a00000000000000000000000000000000000000000000000000000000081526004016102c19061070f565b60405180910390fd5b60018261ffff16146102db57600080fd5b8161ffff16600280549050146103e9578161ffff1667ffffffffffffffff81111561032f577f4e487b7100000000000000000000000000000000000000000000000000000000600052604160045260246000fd5b60405190808252806020026020018201604052801561035d5781602001602082028036833780820191505090505b50600290805190602001906103739291906104be565b5060005b8261ffff168161ffff1610156103e75761029a60028261ffff16815481106103c8577f4e487b7100000000000000000000000000000000000000000000000000000000600052603260045260246000fd5b9060005260206000200181905550806103e0906107fc565b9050610377565b505b7f5a82a565b8cc97bc62f2041e057e918f6b3b7b4185104d7d4a52ed5c711e723261030960405161041a91906106f4565b60405180910390a16103099050919050565b60606103098214610466577f4e487b7100000000000000000000000000000000000000000000000000000000600052600160045260246000fd5b60028054806020026020016040519081016040528092919081815260200182805480156104b257602002820191906000526020600020905b81548152602001906001019080831161049e575b50505050509050919050565b8280548282559060005260206000209081019282156104fa579160200282015b828111156104f95782518255916020019190600101906104de565b5b509050610507919061050b565b5090565b5b8082111561052457600081600090555060010161050c565b5090565b600081359050610537816108a5565b92915050565b60008135905061054c816108bc565b92915050565b600081359050610561816108d3565b92915050565b60006020828403121561057957600080fd5b600061058784828501610528565b91505092915050565b6000602082840312156105a257600080fd5b60006105b08482850161053d565b91505092915050565b6000602082840312156105cb57600080fd5b60006105d984828501610552565b91505092915050565b60006105ee8383610699565b60208301905092915050565b60006106058261075a565b61060f8185610772565b935061061a8361074a565b8060005b8381101561064b57815161063288826105e2565b975061063d83610765565b92505060018101905061061e565b5085935050505092915050565b610661816107a6565b82525050565b610670816107ea565b82525050565b6000610683602383610783565b915061068e82610856565b604082019050919050565b6106a2816107e0565b82525050565b6106b1816107e0565b82525050565b600060208201905081810360008301526106d181846105fa565b905092915050565b60006020820190506106ee6000830184610658565b92915050565b60006020820190506107096000830184610667565b92915050565b6000602082019050818103600083015261072881610676565b9050919050565b600060208201905061074460008301846106a8565b92915050565b6000819050602082019050919050565b600081519050919050565b6000602082019050919050565b600082825260208201905092915050565b600082825260208201905092915050565b600061079f826107c0565b9050919050565b60008115159050919050565b600061ffff82169050919050565b600073ffffffffffffffffffffffffffffffffffffffff82169050919050565b6000819050919050565b60006107f5826107e0565b9050919050565b6000610807826107b2565b915061ffff82141561081c5761081b610827565b5b600182019050919050565b7f4e487b7100000000000000000000000000000000000000000000000000000000600052601160045260246000fd5b7f6f6e6c7920596f6c6f4c6f742063616e206578656375746520596f6c6f52616e60008201527f646f6d0000000000000000000000000000000000000000000000000000000000602082015250565b6108ae81610794565b81146108b957600080fd5b50565b6108c5816107b2565b81146108d057600080fd5b50565b6108dc816107e0565b81146108e757600080fd5b5056fea2646970667358221220bd33680d173d79238b37ed41eac9f6c4a01d6e0b18afcaffdaaae1965961245964736f6c6343000804003360c0604052620186a0600760006101000a81548163ffffffff021916908363ffffffff1602179055506003600760046101000a81548161ffff021916908361ffff16021790555073326c977e6efc84e512bb9c30f76e30c160ed06fb600760066101000a81548173ffffffffffffffffffffffffffffffffffffffff021916908373ffffffffffffffffffffffffffffffffffffffff16021790555073708701a1dff4f478de54383e49a627ed4852c816600860006101000a81548173ffffffffffffffffffffffffffffffffffffffff021916908373ffffffffffffffffffffffffffffffffffffffff160217905550348015620000fd57600080fd5b50604051620022b8380380620022b883398181016040528101906200012391906200046e565b80806000600760069054906101000a900473ffffffffffffffffffffffffffffffffffffffff16600860009054906101000a900473ffffffffffffffffffffffffffffffffffffffff168580600160006101000a81548173ffffffffffffffffffffffffffffffffffffffff021916908373ffffffffffffffffffffffffffffffffffffffff160217905550508173ffffffffffffffffffffffffffffffffffffffff1660808173ffffffffffffffffffffffffffffffffffffffff1660601b815250508073ffffffffffffffffffffffffffffffffffffffff1660a08173ffffffffffffffffffffffffffffffffffffffff1660601b815250505050600073ffffffffffffffffffffffffffffffffffffffff168273ffffffffffffffffffffffffffffffffffffffff16141562000293576040517f08c379a00000000000000000000000000000000000000000000000000000000081526004016200028a90620004e8565b60405180910390fd5b81600260006101000a81548173ffffffffffffffffffffffffffffffffffffffff021916908373ffffffffffffffffffffffffffffffffffffffff160217905550600073ffffffffffffffffffffffffffffffffffffffff168173ffffffffffffffffffffffffffffffffffffffff16146200031b576200031a816200032560201b60201c565b5b50505050620005dd565b3373ffffffffffffffffffffffffffffffffffffffff168173ffffffffffffffffffffffffffffffffffffffff16141562000397576040517f08c379a00000000000000000000000000000000000000000000000000000000081526004016200038e906200050a565b60405180910390fd5b80600360006101000a81548173ffffffffffffffffffffffffffffffffffffffff021916908373ffffffffffffffffffffffffffffffffffffffff1602179055508073ffffffffffffffffffffffffffffffffffffffff16600260009054906101000a900473ffffffffffffffffffffffffffffffffffffffff1673ffffffffffffffffffffffffffffffffffffffff167fed8889f560326eb138920d842192f0eb3dd22b4f139c87a2c57538e05bae127860405160405180910390a350565b6000815190506200046881620005c3565b92915050565b6000602082840312156200048157600080fd5b6000620004918482850162000457565b91505092915050565b6000620004a96018836200052c565b9150620004b68262000571565b602082019050919050565b6000620004d06017836200052c565b9150620004dd826200059a565b602082019050919050565b6000602082019050818103600083015262000503816200049a565b9050919050565b600060208201905081810360008301526200052581620004c1565b9050919050565b600082825260208201905092915050565b60006200054a8262000551565b9050919050565b600073ffffffffffffffffffffffffffffffffffffffff82169050919050565b7f43616e6e6f7420736574206f776e657220746f207a65726f0000000000000000600082015250565b7f43616e6e6f74207472616e7366657220746f2073656c66000000000000000000600082015250565b620005ce816200053d565b8114620005da57600080fd5b50565b60805160601c60a05160601c611c93620006256000396000818161023e015281816107d401528181610d8101528181610da20152610ee001526000610d450152611c936000f3fe608060405234801561001057600080fd5b50600436106100b45760003560e01c80638dc654a2116100715780638dc654a2146101675780639fcb5bf014610171578063a168fa89146101a1578063b37217a4146101d2578063f2fde38b14610202578063fc2a88c31461021e576100b4565b80631fe543e3146100b957806363a579d5146100d557806379ba5097146100f1578063856c71dd146100fb5780638796ba8c146101195780638da5cb5b14610149575b600080fd5b6100d360048036038101906100ce91906113bc565b61023c565b005b6100ef60048036038101906100ea91906112ef565b6102d8565b005b6100f9610375565b005b61010361050c565b60405161011091906116c1565b60405180910390f35b610133600480360381019061012e919061136a565b6105bd565b60405161014091906117bc565b60405180910390f35b6101516105e1565b60405161015e919061161d565b60405180910390f35b61016f61060b565b005b61018b60048036038101906101869190611341565b610791565b60405161019891906117bc565b60405180910390f35b6101bb60048036038101906101b6919061136a565b6109dd565b6040516101c9929190611845565b60405180910390f35b6101ec60048036038101906101e7919061136a565b610a0e565b6040516101f9919061169f565b60405180910390f35b61021c600480360381019061021791906112ef565b610b47565b005b610226610b5b565b60405161023391906117bc565b60405180910390f35b7f000000000000000000000000000000000000000000000000000000000000000073ffffffffffffffffffffffffffffffffffffffff163373ffffffffffffffffffffffffffffffffffffffff16146102ca576040517f08c379a00000000000000000000000000000000000000000000000000000000081526004016102c19061179c565b60405180910390fd5b6102d48282610b61565b5050565b600160009054906101000a900473ffffffffffffffffffffffffffffffffffffffff1673ffffffffffffffffffffffffffffffffffffffff163373ffffffffffffffffffffffffffffffffffffffff161461033257600080fd5b806000806101000a81548173ffffffffffffffffffffffffffffffffffffffff021916908373ffffffffffffffffffffffffffffffffffffffff16021790555050565b600360009054906101000a900473ffffffffffffffffffffffffffffffffffffffff1673ffffffffffffffffffffffffffffffffffffffff163373ffffffffffffffffffffffffffffffffffffffff1614610405576040517f08c379a00000000000000000000000000000000000000000000000000000000081526004016103fc906116fc565b60405180910390fd5b6000600260009054906101000a900473ffffffffffffffffffffffffffffffffffffffff16905033600260006101000a81548173ffffffffffffffffffffffffffffffffffffffff021916908373ffffffffffffffffffffffffffffffffffffffff1602179055506000600360006101000a81548173ffffffffffffffffffffffffffffffffffffffff021916908373ffffffffffffffffffffffffffffffffffffffff1602179055503373ffffffffffffffffffffffffffffffffffffffff168173ffffffffffffffffffffffffffffffffffffffff167f8be0079c531659141344cd1fd0a4f28419497f9722a3daafe3b4186f6b6457e060405160405180910390a350565b6000600160009054906101000a900473ffffffffffffffffffffffffffffffffffffffff1673ffffffffffffffffffffffffffffffffffffffff163373ffffffffffffffffffffffffffffffffffffffff161461056857600080fd5b600073ffffffffffffffffffffffffffffffffffffffff1660008054906101000a900473ffffffffffffffffffffffffffffffffffffffff1673ffffffffffffffffffffffffffffffffffffffff1614905090565b600581815481106105cd57600080fd5b906000526020600020016000915090505481565b6000600260009054906101000a900473ffffffffffffffffffffffffffffffffffffffff16905090565b610613610caf565b6000600760069054906101000a900473ffffffffffffffffffffffffffffffffffffffff1690508073ffffffffffffffffffffffffffffffffffffffff1663a9059cbb338373ffffffffffffffffffffffffffffffffffffffff166370a08231306040518263ffffffff1660e01b8152600401610690919061161d565b60206040518083038186803b1580156106a857600080fd5b505afa1580156106bc573d6000803e3d6000fd5b505050506040513d601f19601f820116820180604052508101906106e09190611393565b6040518363ffffffff1660e01b81526004016106fd929190611638565b602060405180830381600087803b15801561071757600080fd5b505af115801561072b573d6000803e3d6000fd5b505050506040513d601f19601f8201168201806040525081019061074f9190611318565b61078e576040517f08c379a00000000000000000000000000000000000000000000000000000000081526004016107859061175c565b60405180910390fd5b50565b6000806107c5600760009054906101000a900463ffffffff16600760049054906101000a900461ffff168561ffff16610d41565b905060405180606001604052807f000000000000000000000000000000000000000000000000000000000000000073ffffffffffffffffffffffffffffffffffffffff16634306d354600760009054906101000a900463ffffffff166040518263ffffffff1660e01b815260040161083d9190611897565b60206040518083038186803b15801561085557600080fd5b505afa158015610869573d6000803e3d6000fd5b505050506040513d601f19601f8201168201806040525081019061088d9190611393565b8152602001600015158152602001600067ffffffffffffffff8111156108dc577f4e487b7100000000000000000000000000000000000000000000000000000000600052604160045260246000fd5b60405190808252806020026020018201604052801561090a5781602001602082028036833780820191505090505b50815250600460008381526020019081526020016000206000820151816000015560208201518160010160006101000a81548160ff0219169083151502179055506040820151816002019080519060200190610967929190611186565b509050506005819080600181540180825580915050600190039060005260206000200160009091909190915055806006819055507fcc58b13ad3eab50626c6a6300b1d139cd6ebb1688a7cced9461c2f7e762665ee81846040516109cc92919061186e565b60405180910390a180915050919050565b60046020528060005260406000206000915090508060000154908060010160009054906101000a900460ff16905082565b6060600060046000848152602001908152602001600020604051806060016040529081600082015481526020016001820160009054906101000a900460ff1615151515815260200160028201805480602002602001604051908101604052809291908181526020018280548015610aa457602002820191906000526020600020905b815481526020019060010190808311610a90575b50505050508152505090506000816000015111610af6576040517f08c379a0000000000000000000000000000000000000000000000000000000008152600401610aed906116dc565b60405180910390fd5b8060200151610b3a576040517f08c379a0000000000000000000000000000000000000000000000000000000008152600401610b319061173c565b60405180910390fd5b8060400151915050919050565b610b4f610caf565b610b5881610f85565b50565b60065481565b600060046000848152602001908152602001600020604051806060016040529081600082015481526020016001820160009054906101000a900460ff1615151515815260200160028201805480602002602001604051908101604052809291908181526020018280548015610bf557602002820191906000526020600020905b815481526020019060010190808311610be1575b50505050508152505090506000816000015111610c47576040517f08c379a0000000000000000000000000000000000000000000000000000000008152600401610c3e906116dc565b60405180910390fd5b6001816020019015159081151581525050818160400181905250610c6b83836110b4565b7f147eb1ff0c82f87f2b03e2c43f5a36488ff63ec6b730195fde4605f612f8db5183838360000151604051610ca293929190611807565b60405180910390a1505050565b600260009054906101000a900473ffffffffffffffffffffffffffffffffffffffff1673ffffffffffffffffffffffffffffffffffffffff163373ffffffffffffffffffffffffffffffffffffffff1614610d3f576040517f08c379a0000000000000000000000000000000000000000000000000000000008152600401610d369061171c565b60405180910390fd5b565b60007f000000000000000000000000000000000000000000000000000000000000000073ffffffffffffffffffffffffffffffffffffffff16634000aea07f00000000000000000000000000000000000000000000000000000000000000007f000000000000000000000000000000000000000000000000000000000000000073ffffffffffffffffffffffffffffffffffffffff16634306d354886040518263ffffffff1660e01b8152600401610df99190611897565b60206040518083038186803b158015610e1157600080fd5b505afa158015610e25573d6000803e3d6000fd5b505050506040513d601f19601f82011682018060405250810190610e499190611393565b878787604051602001610e5e939291906118b2565b6040516020818303038152906040526040518463ffffffff1660e01b8152600401610e8b93929190611661565b602060405180830381600087803b158015610ea557600080fd5b505af1158015610eb9573d6000803e3d6000fd5b505050506040513d601f19601f82011682018060405250810190610edd9190611318565b507f000000000000000000000000000000000000000000000000000000000000000073ffffffffffffffffffffffffffffffffffffffff1663fc2a88c36040518163ffffffff1660e01b815260040160206040518083038186803b158015610f4457600080fd5b505afa158015610f58573d6000803e3d6000fd5b505050506040513d601f19601f82011682018060405250810190610f7c9190611393565b90509392505050565b3373ffffffffffffffffffffffffffffffffffffffff168173ffffffffffffffffffffffffffffffffffffffff161415610ff4576040517f08c379a0000000000000000000000000000000000000000000000000000000008152600401610feb9061177c565b60405180910390fd5b80600360006101000a81548173ffffffffffffffffffffffffffffffffffffffff021916908373ffffffffffffffffffffffffffffffffffffffff1602179055508073ffffffffffffffffffffffffffffffffffffffff16600260009054906101000a900473ffffffffffffffffffffffffffffffffffffffff1673ffffffffffffffffffffffffffffffffffffffff167fed8889f560326eb138920d842192f0eb3dd22b4f139c87a2c57538e05bae127860405160405180910390a350565b60008054906101000a900473ffffffffffffffffffffffffffffffffffffffff1673ffffffffffffffffffffffffffffffffffffffff1663afce07c983836040518363ffffffff1660e01b815260040161110f9291906117d7565b600060405180830381600087803b15801561112957600080fd5b505af115801561113d573d6000803e3d6000fd5b5050505060008060006101000a81548173ffffffffffffffffffffffffffffffffffffffff021916908373ffffffffffffffffffffffffffffffffffffffff1602179055505050565b8280548282559060005260206000209081019282156111c2579160200282015b828111156111c15782518255916020019190600101906111a6565b5b5090506111cf91906111d3565b5090565b5b808211156111ec5760008160009055506001016111d4565b5090565b60006112036111fe8461190e565b6118e9565b9050808382526020820190508285602086028201111561122257600080fd5b60005b85811015611252578161123888826112c5565b845260208401935060208301925050600181019050611225565b5050509392505050565b60008135905061126b81611c01565b92915050565b600082601f83011261128257600080fd5b81356112928482602086016111f0565b91505092915050565b6000815190506112aa81611c18565b92915050565b6000813590506112bf81611c2f565b92915050565b6000813590506112d481611c46565b92915050565b6000815190506112e981611c46565b92915050565b60006020828403121561130157600080fd5b600061130f8482850161125c565b91505092915050565b60006020828403121561132a57600080fd5b60006113388482850161129b565b91505092915050565b60006020828403121561135357600080fd5b6000611361848285016112b0565b91505092915050565b60006020828403121561137c57600080fd5b600061138a848285016112c5565b91505092915050565b6000602082840312156113a557600080fd5b60006113b3848285016112da565b91505092915050565b600080604083850312156113cf57600080fd5b60006113dd858286016112c5565b925050602083013567ffffffffffffffff8111156113fa57600080fd5b61140685828601611271565b9150509250929050565b600061141c83836115f0565b60208301905092915050565b611431816119a0565b82525050565b60006114428261194a565b61144c818561196d565b93506114578361193a565b8060005b8381101561148857815161146f8882611410565b975061147a83611960565b92505060018101905061145b565b5085935050505092915050565b61149e816119b2565b82525050565b60006114af82611955565b6114b9818561197e565b93506114c9818560208601611a18565b6114d281611aab565b840191505092915050565b60006114ea60118361198f565b91506114f582611abc565b602082019050919050565b600061150d60168361198f565b915061151882611ae5565b602082019050919050565b600061153060168361198f565b915061153b82611b0e565b602082019050919050565b600061155360268361198f565b915061155e82611b37565b604082019050919050565b600061157660128361198f565b915061158182611b86565b602082019050919050565b600061159960178361198f565b91506115a482611baf565b602082019050919050565b60006115bc601f8361198f565b91506115c782611bd8565b602082019050919050565b6115db816119be565b82525050565b6115ea81611a06565b82525050565b6115f9816119ec565b82525050565b611608816119ec565b82525050565b611617816119f6565b82525050565b60006020820190506116326000830184611428565b92915050565b600060408201905061164d6000830185611428565b61165a60208301846115ff565b9392505050565b60006060820190506116766000830186611428565b61168360208301856115ff565b818103604083015261169581846114a4565b9050949350505050565b600060208201905081810360008301526116b98184611437565b905092915050565b60006020820190506116d66000830184611495565b92915050565b600060208201905081810360008301526116f5816114dd565b9050919050565b6000602082019050818103600083015261171581611500565b9050919050565b6000602082019050818103600083015261173581611523565b9050919050565b6000602082019050818103600083015261175581611546565b9050919050565b6000602082019050818103600083015261177581611569565b9050919050565b600060208201905081810360008301526117958161158c565b9050919050565b600060208201905081810360008301526117b5816115af565b9050919050565b60006020820190506117d160008301846115ff565b92915050565b60006040820190506117ec60008301856115ff565b81810360208301526117fe8184611437565b90509392505050565b600060608201905061181c60008301866115ff565b818103602083015261182e8185611437565b905061183d60408301846115ff565b949350505050565b600060408201905061185a60008301856115ff565b6118676020830184611495565b9392505050565b600060408201905061188360008301856115ff565b61189060208301846115e1565b9392505050565b60006020820190506118ac600083018461160e565b92915050565b60006060820190506118c7600083018661160e565b6118d460208301856115d2565b6118e1604083018461160e565b949350505050565b60006118f3611904565b90506118ff8282611a4b565b919050565b6000604051905090565b600067ffffffffffffffff82111561192957611928611a7c565b5b602082029050602081019050919050565b6000819050602082019050919050565b600081519050919050565b600081519050919050565b6000602082019050919050565b600082825260208201905092915050565b600082825260208201905092915050565b600082825260208201905092915050565b60006119ab826119cc565b9050919050565b60008115159050919050565b600061ffff82169050919050565b600073ffffffffffffffffffffffffffffffffffffffff82169050919050565b6000819050919050565b600063ffffffff82169050919050565b6000611a11826119be565b9050919050565b60005b83811015611a36578082015181840152602081019050611a1b565b83811115611a45576000848401525b50505050565b611a5482611aab565b810181811067ffffffffffffffff82111715611a7357611a72611a7c565b5b80604052505050565b7f4e487b7100000000000000000000000000000000000000000000000000000000600052604160045260246000fd5b6000601f19601f8301169050919050565b7f72657175657374206e6f7420666f756e64000000000000000000000000000000600082015250565b7f4d7573742062652070726f706f736564206f776e657200000000000000000000600082015250565b7f4f6e6c792063616c6c61626c65206279206f776e657200000000000000000000600082015250565b7f436861696e6c696e6b2072616e646f6d206e756d62657273206e6f742072656160008201527f6479207965740000000000000000000000000000000000000000000000000000602082015250565b7f556e61626c6520746f207472616e736665720000000000000000000000000000600082015250565b7f43616e6e6f74207472616e7366657220746f2073656c66000000000000000000600082015250565b7f6f6e6c792056524620563220777261707065722063616e2066756c66696c6c00600082015250565b611c0a816119a0565b8114611c1557600080fd5b50565b611c21816119b2565b8114611c2c57600080fd5b50565b611c38816119be565b8114611c4357600080fd5b50565b611c4f816119ec565b8114611c5a57600080fd5b5056fea26469706673582212202a54f594b9dfe55a9bea4f20fa323df57e3c5a6058ac0e4b01105395a2f8b09e64736f6c63430008040033a2646970667358221220a133531de49d0a6da5b4e48a4650794a6fb8550a7da8a34537e6a53d31ec321264736f6c63430008040033",
  "linkReferences": {},
  "deployedLinkReferences": {}
}