{
  "_format": "hh-sol-artifact-1",
  "contractName": "YoloDealer",
  "sourceName": "contracts/YoloDealer.sol",
  "abi": [
    {
      "inputs": [],
      "stateMutability": "nonpayable",
      "type": "constructor"
    },
    {
      "anonymous": false,
      "inputs": [
        {
          "indexed": true,
          "internalType": "address",
          "name": "previousOwner",
          "type": "address"
        },
        {
          "indexed": true,
          "internalType": "address",
          "name": "newOwner",
          "type": "address"
        }
      ],
      "name": "OwnershipTransferred",
      "type": "event"
    },
    {
      "anonymous": false,
      "inputs": [
        {
          "indexed": false,
          "internalType": "address",
          "name": "",
          "type": "address"
        },
        {
          "indexed": false,
          "internalType": "address",
          "name": "",
          "type": "address"
        }
      ],
      "name": "YoloLotCreated",
      "type": "event"
    },
    {
      "inputs": [],
      "name": "clearRNG",
      "outputs": [],
      "stateMutability": "nonpayable",
      "type": "function"
    },
    {
      "inputs": [],
      "name": "getYoloLottery",
      "outputs": [],
      "stateMutability": "nonpayable",
      "type": "function"
    },
    {
      "inputs": [],
      "name": "owner",
      "outputs": [
        {
          "internalType": "address",
          "name": "",
          "type": "address"
        }
      ],
      "stateMutability": "view",
      "type": "function"
    },
    {
      "inputs": [],
      "name": "renounceOwnership",
      "outputs": [],
      "stateMutability": "nonpayable",
      "type": "function"
    },
    {
      "inputs": [
        {
          "internalType": "uint256",
          "name": "capacity_",
          "type": "uint256"
        },
        {
          "internalType": "bool",
          "name": "preserve",
          "type": "bool"
        }
      ],
      "name": "setRNGCapacity",
      "outputs": [],
      "stateMutability": "nonpayable",
      "type": "function"
    },
    {
      "inputs": [
        {
          "internalType": "enum YoloRandomProvider",
          "name": "rngProvider_",
          "type": "uint8"
        }
      ],
      "name": "setRandomProvider",
      "outputs": [],
      "stateMutability": "nonpayable",
      "type": "function"
    },
    {
      "inputs": [
        {
          "internalType": "address",
          "name": "yoloCoin_",
          "type": "address"
        }
      ],
      "name": "setYoloCoin",
      "outputs": [],
      "stateMutability": "nonpayable",
      "type": "function"
    },
    {
      "inputs": [
        {
          "internalType": "address",
          "name": "newOwner",
          "type": "address"
        }
      ],
      "name": "transferOwnership",
      "outputs": [],
      "stateMutability": "nonpayable",
      "type": "function"
    }
  ],
  "bytecode": "0x608060405234801561001057600080fd5b5061002d61002261003260201b60201c565b61003a60201b60201c565b6100fe565b600033905090565b60008060009054906101000a900473ffffffffffffffffffffffffffffffffffffffff169050816000806101000a81548173ffffffffffffffffffffffffffffffffffffffff021916908373ffffffffffffffffffffffffffffffffffffffff1602179055508173ffffffffffffffffffffffffffffffffffffffff168173ffffffffffffffffffffffffffffffffffffffff167f8be0079c531659141344cd1fd0a4f28419497f9722a3daafe3b4186f6b6457e060405160405180910390a35050565b613e9f8061010d6000396000f3fe60806040523480156200001157600080fd5b5060043610620000945760003560e01c8063b45180a21162000063578063b45180a21462000107578063cba92ae41462000113578063ebaa6e57146200011f578063f2fde38b146200013f5762000094565b8063571511511462000099578063715018a614620000b95780638da5cb5b14620000c557806393ca26d114620000e7575b600080fd5b620000b76004803603810190620000b191906200117d565b6200015f565b005b620000c362000236565b005b620000cf620002c7565b604051620000de9190620012be565b60405180910390f35b620001056004803603810190620000ff919062001125565b620002f0565b005b62000111620003b7565b005b6200011d6200044c565b005b6200013d6004803603810190620001379190620011a9565b620005ec565b005b6200015d600480360381019062000157919062001125565b620007af565b005b62000169620008b3565b73ffffffffffffffffffffffffffffffffffffffff1662000189620002c7565b73ffffffffffffffffffffffffffffffffffffffff1614620001e2576040517f08c379a0000000000000000000000000000000000000000000000000000000008152600401620001d99062001390565b60405180910390fd5b80600160146101000a81548160ff021916908360018111156200022e577f4e487b7100000000000000000000000000000000000000000000000000000000600052602160045260246000fd5b021790555050565b62000240620008b3565b73ffffffffffffffffffffffffffffffffffffffff1662000260620002c7565b73ffffffffffffffffffffffffffffffffffffffff1614620002b9576040517f08c379a0000000000000000000000000000000000000000000000000000000008152600401620002b09062001390565b60405180910390fd5b620002c56000620008bb565b565b60008060009054906101000a900473ffffffffffffffffffffffffffffffffffffffff16905090565b620002fa620008b3565b73ffffffffffffffffffffffffffffffffffffffff166200031a620002c7565b73ffffffffffffffffffffffffffffffffffffffff161462000373576040517f08c379a00000000000000000000000000000000000000000000000000000000081526004016200036a9062001390565b60405180910390fd5b80600160006101000a81548173ffffffffffffffffffffffffffffffffffffffff021916908373ffffffffffffffffffffffffffffffffffffffff16021790555050565b620003c1620008b3565b73ffffffffffffffffffffffffffffffffffffffff16620003e1620002c7565b73ffffffffffffffffffffffffffffffffffffffff16146200043a576040517f08c379a0000000000000000000000000000000000000000000000000000000008152600401620004319062001390565b60405180910390fd5b600260006200044a919062000fb7565b565b62000456620008b3565b73ffffffffffffffffffffffffffffffffffffffff1662000476620002c7565b73ffffffffffffffffffffffffffffffffffffffff1614620004cf576040517f08c379a0000000000000000000000000000000000000000000000000000000008152600401620004c69062001390565b60405180910390fd5b6000620004db6200097f565b9050600081600160009054906101000a900473ffffffffffffffffffffffffffffffffffffffff16604051620005119062000fda565b6200051e929190620012db565b604051809103906000f0801580156200053b573d6000803e3d6000fd5b5090508173ffffffffffffffffffffffffffffffffffffffff166363a579d5826040518263ffffffff1660e01b8152600401620005799190620012be565b600060405180830381600087803b1580156200059457600080fd5b505af1158015620005a9573d6000803e3d6000fd5b505050507fac39f3a47bd2265f37c5936f3090339a30eec33327ec55c8bf712b7ad2ce504e3382604051620005e0929190620012db565b60405180910390a15050565b620005f6620008b3565b73ffffffffffffffffffffffffffffffffffffffff1662000616620002c7565b73ffffffffffffffffffffffffffffffffffffffff16146200066f576040517f08c379a0000000000000000000000000000000000000000000000000000000008152600401620006669062001390565b60405180910390fd5b80156200071a57600060016002805490506200068c9190620013c3565b90505b828110620007135760028181548110620006d2577f4e487b7100000000000000000000000000000000000000000000000000000000600052603260045260246000fd5b9060005260206000200160006101000a81549073ffffffffffffffffffffffffffffffffffffffff0219169055806200070b9062001448565b90506200068f565b50620007a4565b8167ffffffffffffffff8111156200075b577f4e487b7100000000000000000000000000000000000000000000000000000000600052604160045260246000fd5b6040519080825280602002602001820160405280156200078a5781602001602082028036833780820191505090505b5060029080519060200190620007a292919062000fe8565b505b816003819055505050565b620007b9620008b3565b73ffffffffffffffffffffffffffffffffffffffff16620007d9620002c7565b73ffffffffffffffffffffffffffffffffffffffff161462000832576040517f08c379a0000000000000000000000000000000000000000000000000000000008152600401620008299062001390565b60405180910390fd5b600073ffffffffffffffffffffffffffffffffffffffff168173ffffffffffffffffffffffffffffffffffffffff161415620008a5576040517f08c379a00000000000000000000000000000000000000000000000000000000081526004016200089c906200132a565b60405180910390fd5b620008b081620008bb565b50565b600033905090565b60008060009054906101000a900473ffffffffffffffffffffffffffffffffffffffff169050816000806101000a81548173ffffffffffffffffffffffffffffffffffffffff021916908373ffffffffffffffffffffffffffffffffffffffff1602179055508173ffffffffffffffffffffffffffffffffffffffff168173ffffffffffffffffffffffffffffffffffffffff167f8be0079c531659141344cd1fd0a4f28419497f9722a3daafe3b4186f6b6457e060405160405180910390a35050565b60006200098b620008b3565b73ffffffffffffffffffffffffffffffffffffffff16620009ab620002c7565b73ffffffffffffffffffffffffffffffffffffffff161462000a04576040517f08c379a0000000000000000000000000000000000000000000000000000000008152600401620009fb9062001390565b60405180910390fd5b60006003541162000a4c576040517f08c379a000000000000000000000000000000000000000000000000000000000815260040162000a43906200134c565b60405180910390fd5b60005b60035481101562000d0257600073ffffffffffffffffffffffffffffffffffffffff166002828154811062000aad577f4e487b7100000000000000000000000000000000000000000000000000000000600052603260045260246000fd5b9060005260206000200160009054906101000a900473ffffffffffffffffffffffffffffffffffffffff1673ffffffffffffffffffffffffffffffffffffffff16141562000b9257600062000b0162000d4f565b9050806002838154811062000b3f577f4e487b7100000000000000000000000000000000000000000000000000000000600052603260045260246000fd5b9060005260206000200160006101000a81548173ffffffffffffffffffffffffffffffffffffffff021916908373ffffffffffffffffffffffffffffffffffffffff160217905550809250505062000d4c565b6002818154811062000bcd577f4e487b7100000000000000000000000000000000000000000000000000000000600052603260045260246000fd5b9060005260206000200160009054906101000a900473ffffffffffffffffffffffffffffffffffffffff1673ffffffffffffffffffffffffffffffffffffffff1663856c71dd6040518163ffffffff1660e01b815260040160206040518083038186803b15801562000c3e57600080fd5b505afa15801562000c53573d6000803e3d6000fd5b505050506040513d601f19601f8201168201806040525081019062000c79919062001151565b1562000cee576002818154811062000cba577f4e487b7100000000000000000000000000000000000000000000000000000000600052603260045260246000fd5b9060005260206000200160009054906101000a900473ffffffffffffffffffffffffffffffffffffffff1691505062000d4c565b8062000cfa9062001477565b905062000a4f565b50600062000d47576040517f08c379a000000000000000000000000000000000000000000000000000000000815260040162000d3e9062001308565b60405180910390fd5b600090505b90565b600062000d5b620008b3565b73ffffffffffffffffffffffffffffffffffffffff1662000d7b620002c7565b73ffffffffffffffffffffffffffffffffffffffff161462000dd4576040517f08c379a000000000000000000000000000000000000000000000000000000000815260040162000dcb9062001390565b60405180910390fd5b6000600181111562000e0f577f4e487b7100000000000000000000000000000000000000000000000000000000600052602160045260246000fd5b600160149054906101000a900460ff16600181111562000e58577f4e487b7100000000000000000000000000000000000000000000000000000000600052602160045260246000fd5b141562000ea0573060405162000e6e9062001077565b62000e7a9190620012be565b604051809103906000f08015801562000e97573d6000803e3d6000fd5b50905062000fb4565b60018081111562000eda577f4e487b7100000000000000000000000000000000000000000000000000000000600052602160045260246000fd5b600160149054906101000a900460ff16600181111562000f23577f4e487b7100000000000000000000000000000000000000000000000000000000600052602160045260246000fd5b141562000f6b573060405162000f399062001085565b62000f459190620012be565b604051809103906000f08015801562000f62573d6000803e3d6000fd5b50905062000fb4565b600062000faf576040517f08c379a000000000000000000000000000000000000000000000000000000000815260040162000fa6906200136e565b60405180910390fd5b600090505b90565b508054600082559060005260206000209081019062000fd7919062001093565b50565b610e1a806200166d83390190565b82805482825590600052602060002090810192821562001064579160200282015b82811115620010635782518260006101000a81548173ffffffffffffffffffffffffffffffffffffffff021916908373ffffffffffffffffffffffffffffffffffffffff1602179055509160200191906001019062001009565b5b50905062001073919062001093565b5090565b610899806200248783390190565b61114a8062002d2083390190565b5b80821115620010ae57600081600090555060010162001094565b5090565b600081359050620010c3816200160d565b92915050565b600081359050620010da8162001627565b92915050565b600081519050620010f18162001627565b92915050565b600081359050620011088162001641565b92915050565b6000813590506200111f8162001652565b92915050565b6000602082840312156200113857600080fd5b60006200114884828501620010b2565b91505092915050565b6000602082840312156200116457600080fd5b60006200117484828501620010e0565b91505092915050565b6000602082840312156200119057600080fd5b6000620011a084828501620010f7565b91505092915050565b60008060408385031215620011bd57600080fd5b6000620011cd858286016200110e565b9250506020620011e085828601620010c9565b9150509250929050565b620011f581620013fe565b82525050565b60006200120a602783620013b2565b91506200121782620014f4565b604082019050919050565b600062001231602683620013b2565b91506200123e8262001543565b604082019050919050565b600062001258601583620013b2565b9150620012658262001592565b602082019050919050565b60006200127f601383620013b2565b91506200128c82620015bb565b602082019050919050565b6000620012a6602083620013b2565b9150620012b382620015e4565b602082019050919050565b6000602082019050620012d56000830184620011ea565b92915050565b6000604082019050620012f26000830185620011ea565b620013016020830184620011ea565b9392505050565b600060208201905081810360008301526200132381620011fb565b9050919050565b60006020820190508181036000830152620013458162001222565b9050919050565b60006020820190508181036000830152620013678162001249565b9050919050565b60006020820190508181036000830152620013898162001270565b9050919050565b60006020820190508181036000830152620013ab8162001297565b9050919050565b600082825260208201905092915050565b6000620013d0826200143e565b9150620013dd836200143e565b925082821015620013f357620013f2620014c5565b5b828203905092915050565b60006200140b826200141e565b9050919050565b60008115159050919050565b600073ffffffffffffffffffffffffffffffffffffffff82169050919050565b6000819050919050565b600062001455826200143e565b915060008214156200146c576200146b620014c5565b5b600182039050919050565b600062001484826200143e565b91507fffffffffffffffffffffffffffffffffffffffffffffffffffffffffffffffff821415620014ba57620014b9620014c5565b5b600182019050919050565b7f4e487b7100000000000000000000000000000000000000000000000000000000600052601160045260246000fd5b7f43617061636974792066756c6c2e2043616e6e6f742072657175657374206d6f60008201527f726520524e477300000000000000000000000000000000000000000000000000602082015250565b7f4f776e61626c653a206e6577206f776e657220697320746865207a65726f206160008201527f6464726573730000000000000000000000000000000000000000000000000000602082015250565b7f536574206361706369747920746f206265203e20300000000000000000000000600082015250565b7f556e6b6e6f7720524e472070726f766964657200000000000000000000000000600082015250565b7f4f776e61626c653a2063616c6c6572206973206e6f7420746865206f776e6572600082015250565b6200161881620013fe565b81146200162457600080fd5b50565b620016328162001412565b81146200163e57600080fd5b50565b600281106200164f57600080fd5b50565b6200165d816200143e565b81146200166957600080fd5b5056fe60806040523480156200001157600080fd5b5060405162000e1a38038062000e1a8339818101604052810190620000379190620000f7565b81600360006101000a81548173ffffffffffffffffffffffffffffffffffffffff021916908373ffffffffffffffffffffffffffffffffffffffff160217905550806000806101000a81548173ffffffffffffffffffffffffffffffffffffffff021916908373ffffffffffffffffffffffffffffffffffffffff1602179055504260048190555062093a80600454620000d2919062000138565b60058190555050506200021c565b600081519050620000f18162000202565b92915050565b600080604083850312156200010b57600080fd5b60006200011b85828601620000e0565b92505060206200012e85828601620000e0565b9150509250929050565b60006200014582620001c9565b91506200015283620001c9565b9250827fffffffffffffffffffffffffffffffffffffffffffffffffffffffffffffffff038211156200018a5762000189620001d3565b5b828201905092915050565b6000620001a282620001a9565b9050919050565b600073ffffffffffffffffffffffffffffffffffffffff82169050919050565b6000819050919050565b7f4e487b7100000000000000000000000000000000000000000000000000000000600052601160045260246000fd5b6200020d8162000195565b81146200021957600080fd5b50565b610bee806200022c6000396000f3fe608060405234801561001057600080fd5b506004361061007d5760003560e01c80637022b58e1161005b5780637022b58e146100b457806384e78c6d146100be57806398017489146100dc578063a59f3e0c146100f85761007d565b80630eecae2114610082578063228cb7331461008c5780632d8ed84a14610096575b600080fd5b61008a610114565b005b61009461024b565b005b61009e6103c4565b6040516100ab9190610a1e565b60405180910390f35b6100bc6103ce565b005b6100c661049a565b6040516100d39190610a1e565b60405180910390f35b6100f660048036038101906100f19190610847565b6104e1565b005b610112600480360381019061010d9190610883565b610565565b005b60055442101561012357600080fd5b6000801b6007541461016a576040517f08c379a0000000000000000000000000000000000000000000000000000000008152600401610161906109de565b60405180910390fd5b600360009054906101000a900473ffffffffffffffffffffffffffffffffffffffff1673ffffffffffffffffffffffffffffffffffffffff16638678a7b26040518163ffffffff1660e01b8152600401602060405180830381600087803b1580156101d457600080fd5b505af11580156101e8573d6000803e3d6000fd5b505050506040513d601f19601f8201168201806040525081019061020c919061081e565b6007819055507f3dbe03a49ee50cf72c26b79996df794766412de32aac6e5827113e88aae06f54336040516102419190610948565b60405180910390a1565b60055442101561025a57600080fd5b600073ffffffffffffffffffffffffffffffffffffffff16600660009054906101000a900473ffffffffffffffffffffffffffffffffffffffff1673ffffffffffffffffffffffffffffffffffffffff1614156102b657600080fd5b3373ffffffffffffffffffffffffffffffffffffffff16600660009054906101000a900473ffffffffffffffffffffffffffffffffffffffff1673ffffffffffffffffffffffffffffffffffffffff161461031057600080fd5b60008054906101000a900473ffffffffffffffffffffffffffffffffffffffff1673ffffffffffffffffffffffffffffffffffffffff166323b872dd30336002546040518463ffffffff1660e01b815260040161036f9392919061098c565b602060405180830381600087803b15801561038957600080fd5b505af115801561039d573d6000803e3d6000fd5b505050506040513d601f19601f820116820180604052508101906103c191906107f5565b50565b6000600554905090565b6005544210156103dd57600080fd5b6000600360009054906101000a900473ffffffffffffffffffffffffffffffffffffffff1673ffffffffffffffffffffffffffffffffffffffff1663cb923ccd6007546040518263ffffffff1660e01b815260040161043c91906109c3565b60206040518083038186803b15801561045457600080fd5b505afa158015610468573d6000803e3d6000fd5b505050506040513d601f19601f8201168201806040525081019061048c91906108ac565b905061049781610789565b50565b6000600160003373ffffffffffffffffffffffffffffffffffffffff1673ffffffffffffffffffffffffffffffffffffffff16815260200190815260200160002054905090565b3373ffffffffffffffffffffffffffffffffffffffff16600360009054906101000a900473ffffffffffffffffffffffffffffffffffffffff1673ffffffffffffffffffffffffffffffffffffffff161461053b57600080fd5b60055442101561054a57600080fd5b816007541461055857600080fd5b61056181610789565b5050565b600554421061057357600080fd5b60008060009054906101000a900473ffffffffffffffffffffffffffffffffffffffff1673ffffffffffffffffffffffffffffffffffffffff1663dd62ed3e33306040518363ffffffff1660e01b81526004016105d1929190610963565b60206040518083038186803b1580156105e957600080fd5b505afa1580156105fd573d6000803e3d6000fd5b505050506040513d601f19601f8201168201806040525081019061062191906108ac565b905081811015610666576040517f08c379a000000000000000000000000000000000000000000000000000000000815260040161065d906109fe565b60405180910390fd5b60008054906101000a900473ffffffffffffffffffffffffffffffffffffffff1673ffffffffffffffffffffffffffffffffffffffff166323b872dd3330856040518463ffffffff1660e01b81526004016106c39392919061098c565b602060405180830381600087803b1580156106dd57600080fd5b505af11580156106f1573d6000803e3d6000fd5b505050506040513d601f19601f8201168201806040525081019061071591906107f5565b5081600160003373ffffffffffffffffffffffffffffffffffffffff1673ffffffffffffffffffffffffffffffffffffffff16815260200190815260200160002060008282546107659190610a4a565b92505081905550816002600082825461077e9190610a4a565b925050819055505050565b50565b60008151905061079b81610b73565b92915050565b6000813590506107b081610b8a565b92915050565b6000815190506107c581610b8a565b92915050565b6000813590506107da81610ba1565b92915050565b6000815190506107ef81610ba1565b92915050565b60006020828403121561080757600080fd5b60006108158482850161078c565b91505092915050565b60006020828403121561083057600080fd5b600061083e848285016107b6565b91505092915050565b6000806040838503121561085a57600080fd5b6000610868858286016107a1565b9250506020610879858286016107cb565b9150509250929050565b60006020828403121561089557600080fd5b60006108a3848285016107cb565b91505092915050565b6000602082840312156108be57600080fd5b60006108cc848285016107e0565b91505092915050565b6108de81610aa0565b82525050565b6108ed81610abe565b82525050565b6000610900601283610a39565b915061090b82610b21565b602082019050919050565b6000610923601983610a39565b915061092e82610b4a565b602082019050919050565b61094281610ae8565b82525050565b600060208201905061095d60008301846108d5565b92915050565b600060408201905061097860008301856108d5565b61098560208301846108d5565b9392505050565b60006060820190506109a160008301866108d5565b6109ae60208301856108d5565b6109bb6040830184610939565b949350505050565b60006020820190506109d860008301846108e4565b92915050565b600060208201905081810360008301526109f7816108f3565b9050919050565b60006020820190508181036000830152610a1781610916565b9050919050565b6000602082019050610a336000830184610939565b92915050565b600082825260208201905092915050565b6000610a5582610ae8565b9150610a6083610ae8565b9250827fffffffffffffffffffffffffffffffffffffffffffffffffffffffffffffffff03821115610a9557610a94610af2565b5b828201905092915050565b6000610aab82610ac8565b9050919050565b60008115159050919050565b6000819050919050565b600073ffffffffffffffffffffffffffffffffffffffff82169050919050565b6000819050919050565b7f4e487b7100000000000000000000000000000000000000000000000000000000600052601160045260246000fd5b7f43616e206f6e6c792064726177206f6e63650000000000000000000000000000600082015250565b7f436865636b2074686520746f6b656e20616c6c6f77616e636500000000000000600082015250565b610b7c81610ab2565b8114610b8757600080fd5b50565b610b9381610abe565b8114610b9e57600080fd5b50565b610baa81610ae8565b8114610bb557600080fd5b5056fea2646970667358221220fff023c5b606887388549c4080d5bc8a9aa0646d726f871cdcc56ee49c8f9e0964736f6c63430008040033608060405234801561001057600080fd5b5060405161089938038061089983398181016040528101906100329190610090565b8080600160006101000a81548173ffffffffffffffffffffffffffffffffffffffff021916908373ffffffffffffffffffffffffffffffffffffffff1602179055505050610102565b60008151905061008a816100eb565b92915050565b6000602082840312156100a257600080fd5b60006100b08482850161007b565b91505092915050565b60006100c4826100cb565b9050919050565b600073ffffffffffffffffffffffffffffffffffffffff82169050919050565b6100f4816100b9565b81146100ff57600080fd5b50565b610788806101116000396000f3fe608060405234801561001057600080fd5b50600436106100575760003560e01c8063423fef7e1461005c57806363a579d514610066578063856c71dd146100825780638678a7b2146100a0578063cb923ccd146100be575b600080fd5b6100646100ee565b005b610080600480360381019061007b91906104f7565b61011c565b005b61008a6101b9565b60405161009791906105bf565b60405180910390f35b6100a861026a565b6040516100b591906105da565b60405180910390f35b6100d860048036038101906100d39190610520565b61035f565b6040516100e59190610657565b60405180910390f35b61011a7f74657374496400000000000000000000000000000000000000000000000000006002546103fb565b565b600160009054906101000a900473ffffffffffffffffffffffffffffffffffffffff1673ffffffffffffffffffffffffffffffffffffffff163373ffffffffffffffffffffffffffffffffffffffff161461017657600080fd5b806000806101000a81548173ffffffffffffffffffffffffffffffffffffffff021916908373ffffffffffffffffffffffffffffffffffffffff16021790555050565b6000600160009054906101000a900473ffffffffffffffffffffffffffffffffffffffff1673ffffffffffffffffffffffffffffffffffffffff163373ffffffffffffffffffffffffffffffffffffffff161461021557600080fd5b600073ffffffffffffffffffffffffffffffffffffffff1660008054906101000a900473ffffffffffffffffffffffffffffffffffffffff1673ffffffffffffffffffffffffffffffffffffffff1614905090565b60008060009054906101000a900473ffffffffffffffffffffffffffffffffffffffff1673ffffffffffffffffffffffffffffffffffffffff163373ffffffffffffffffffffffffffffffffffffffff16146102fb576040517f08c379a00000000000000000000000000000000000000000000000000000000081526004016102f29061061e565b60405180910390fd5b61029a6002819055507f1f528edfe7e851f18127c23c0853d428822bcefe59219e6afb0c6f25ffe9d5106040516103319061063e565b60405180910390a17f7465737449640000000000000000000000000000000000000000000000000000905090565b60007f746573744964000000000000000000000000000000000000000000000000000082146103b7577f4e487b7100000000000000000000000000000000000000000000000000000000600052600160045260246000fd5b600060025414156103f1577f4e487b7100000000000000000000000000000000000000000000000000000000600052600160045260246000fd5b6002549050919050565b60008054906101000a900473ffffffffffffffffffffffffffffffffffffffff1673ffffffffffffffffffffffffffffffffffffffff16639801748983836040518363ffffffff1660e01b81526004016104569291906105f5565b600060405180830381600087803b15801561047057600080fd5b505af1158015610484573d6000803e3d6000fd5b5050505060008060006101000a81548173ffffffffffffffffffffffffffffffffffffffff021916908373ffffffffffffffffffffffffffffffffffffffff1602179055505050565b6000813590506104dc81610724565b92915050565b6000813590506104f18161073b565b92915050565b60006020828403121561050957600080fd5b6000610517848285016104cd565b91505092915050565b60006020828403121561053257600080fd5b6000610540848285016104e2565b91505092915050565b61055281610695565b82525050565b610561816106a1565b82525050565b6000610574602383610672565b915061057f826106d5565b604082019050919050565b7f7465737449640000000000000000000000000000000000000000000000000000815250565b6105b9816106cb565b82525050565b60006020820190506105d46000830184610549565b92915050565b60006020820190506105ef6000830184610558565b92915050565b600060408201905061060a6000830185610558565b61061760208301846105b0565b9392505050565b6000602082019050818103600083015261063781610567565b9050919050565b60006020820190506106526000830161058a565b919050565b600060208201905061066c60008301846105b0565b92915050565b600082825260208201905092915050565b600061068e826106ab565b9050919050565b60008115159050919050565b6000819050919050565b600073ffffffffffffffffffffffffffffffffffffffff82169050919050565b6000819050919050565b7f6f6e6c7920596f6c6f4c6f742063616e206578656375746520596f6c6f52616e60008201527f646f6d0000000000000000000000000000000000000000000000000000000000602082015250565b61072d81610683565b811461073857600080fd5b50565b610744816106a1565b811461074f57600080fd5b5056fea26469706673582212200cc5f3b722dafaf439937cf967d867a75b108ab51b4c61524f2a58cb80f9829364736f6c6343000804003360c060405234801561001057600080fd5b5060405161114a38038061114a83398181016040528101906100329190610163565b73f0d54349addcf704f77ae15b96510dea15cb795273514910771af9ca656af840dff83e8264ecf986ca8280600160006101000a81548173ffffffffffffffffffffffffffffffffffffffff021916908373ffffffffffffffffffffffffffffffffffffffff160217905550508173ffffffffffffffffffffffffffffffffffffffff1660a08173ffffffffffffffffffffffffffffffffffffffff1660601b815250508073ffffffffffffffffffffffffffffffffffffffff1660808173ffffffffffffffffffffffffffffffffffffffff1660601b8152505050507faa77729d3466ca35ae8d28b3bbac7cc36a5031efdc430821c02bc31a238af44560001b600381905550671bc16d674ec80000600481905550506101d5565b60008151905061015d816101be565b92915050565b60006020828403121561017557600080fd5b60006101838482850161014e565b91505092915050565b60006101978261019e565b9050919050565b600073ffffffffffffffffffffffffffffffffffffffff82169050919050565b6101c78161018c565b81146101d257600080fd5b50565b60805160601c60a05160601c610f3c61020e600039600081816103e601526105590152600081816102e4015261051d0152610f3c6000f3fe608060405234801561001057600080fd5b50600436106100575760003560e01c806363a579d51461005c578063856c71dd146100785780638678a7b21461009657806394985ddd146100b4578063cb923ccd146100d0575b600080fd5b6100766004803603810190610071919061088b565b610100565b005b61008061019d565b60405161008d9190610b1f565b60405180910390f35b61009e61024e565b6040516100ab9190610b3a565b60405180910390f35b6100ce60048036038101906100c99190610906565b6103e4565b005b6100ea60048036038101906100e591906108dd565b610480565b6040516100f79190610c43565b60405180910390f35b600160009054906101000a900473ffffffffffffffffffffffffffffffffffffffff1673ffffffffffffffffffffffffffffffffffffffff163373ffffffffffffffffffffffffffffffffffffffff161461015a57600080fd5b806000806101000a81548173ffffffffffffffffffffffffffffffffffffffff021916908373ffffffffffffffffffffffffffffffffffffffff16021790555050565b6000600160009054906101000a900473ffffffffffffffffffffffffffffffffffffffff1673ffffffffffffffffffffffffffffffffffffffff163373ffffffffffffffffffffffffffffffffffffffff16146101f957600080fd5b600073ffffffffffffffffffffffffffffffffffffffff1660008054906101000a900473ffffffffffffffffffffffffffffffffffffffff1673ffffffffffffffffffffffffffffffffffffffff1614905090565b60008060009054906101000a900473ffffffffffffffffffffffffffffffffffffffff1673ffffffffffffffffffffffffffffffffffffffff163373ffffffffffffffffffffffffffffffffffffffff16146102df576040517f08c379a00000000000000000000000000000000000000000000000000000000081526004016102d690610c23565b60405180910390fd5b6004547f000000000000000000000000000000000000000000000000000000000000000073ffffffffffffffffffffffffffffffffffffffff166370a08231306040518263ffffffff1660e01b815260040161033b9190610ac6565b60206040518083038186803b15801561035357600080fd5b505afa158015610367573d6000803e3d6000fd5b505050506040513d601f19601f8201168201806040525081019061038b9190610942565b116103cb576040517f08c379a00000000000000000000000000000000000000000000000000000000081526004016103c290610bc3565b60405180910390fd5b60006103db600354600454610519565b90508091505090565b7f000000000000000000000000000000000000000000000000000000000000000073ffffffffffffffffffffffffffffffffffffffff163373ffffffffffffffffffffffffffffffffffffffff1614610472576040517f08c379a000000000000000000000000000000000000000000000000000000000815260040161046990610c03565b60405180910390fd5b61047c828261067b565b5050565b60008060056000848152602001908152602001600020604051806040016040529081600082015481526020016001820160009054906101000a900460ff1615151515815250509050806020015161050c576040517f08c379a000000000000000000000000000000000000000000000000000000000815260040161050390610be3565b60405180910390fd5b8060000151915050919050565b60007f000000000000000000000000000000000000000000000000000000000000000073ffffffffffffffffffffffffffffffffffffffff16634000aea07f00000000000000000000000000000000000000000000000000000000000000008486600060405160200161058d929190610b55565b6040516020818303038152906040526040518463ffffffff1660e01b81526004016105ba93929190610ae1565b602060405180830381600087803b1580156105d457600080fd5b505af11580156105e8573d6000803e3d6000fd5b505050506040513d601f19601f8201168201806040525081019061060c91906108b4565b50600061062f8460003060026000898152602001908152602001600020546106e1565b9050600160026000868152602001908152602001600020546106519190610c8b565b6002600086815260200190815260200160002081905550610672848261071d565b91505092915050565b604051806040016040528082815260200160011515815250600560008481526020019081526020016000206000820151816000015560208201518160010160006101000a81548160ff0219169083151502179055509050506106dd8282610750565b5050565b6000848484846040516020016106fa9493929190610b7e565b6040516020818303038152906040528051906020012060001c9050949350505050565b60008282604051602001610732929190610a9a565b60405160208183030381529060405280519060200120905092915050565b60008054906101000a900473ffffffffffffffffffffffffffffffffffffffff1673ffffffffffffffffffffffffffffffffffffffff16639801748983836040518363ffffffff1660e01b81526004016107ab929190610b55565b600060405180830381600087803b1580156107c557600080fd5b505af11580156107d9573d6000803e3d6000fd5b5050505060008060006101000a81548173ffffffffffffffffffffffffffffffffffffffff021916908373ffffffffffffffffffffffffffffffffffffffff1602179055505050565b60008135905061083181610eaa565b92915050565b60008151905061084681610ec1565b92915050565b60008135905061085b81610ed8565b92915050565b60008135905061087081610eef565b92915050565b60008151905061088581610eef565b92915050565b60006020828403121561089d57600080fd5b60006108ab84828501610822565b91505092915050565b6000602082840312156108c657600080fd5b60006108d484828501610837565b91505092915050565b6000602082840312156108ef57600080fd5b60006108fd8482850161084c565b91505092915050565b6000806040838503121561091957600080fd5b60006109278582860161084c565b925050602061093885828601610861565b9150509250929050565b60006020828403121561095457600080fd5b600061096284828501610876565b91505092915050565b61097481610ce1565b82525050565b61098381610cf3565b82525050565b61099281610cff565b82525050565b6109a96109a482610cff565b610d66565b82525050565b60006109ba82610c5e565b6109c48185610c69565b93506109d4818560208601610d33565b6109dd81610da9565b840191505092915050565b60006109f5602b83610c7a565b9150610a0082610dba565b604082019050919050565b6000610a18601183610c7a565b9150610a2382610e09565b602082019050919050565b6000610a3b601f83610c7a565b9150610a4682610e32565b602082019050919050565b6000610a5e602383610c7a565b9150610a6982610e5b565b604082019050919050565b610a7d81610d29565b82525050565b610a94610a8f82610d29565b610d70565b82525050565b6000610aa68285610998565b602082019150610ab68284610a83565b6020820191508190509392505050565b6000602082019050610adb600083018461096b565b92915050565b6000606082019050610af6600083018661096b565b610b036020830185610a74565b8181036040830152610b1581846109af565b9050949350505050565b6000602082019050610b34600083018461097a565b92915050565b6000602082019050610b4f6000830184610989565b92915050565b6000604082019050610b6a6000830185610989565b610b776020830184610a74565b9392505050565b6000608082019050610b936000830187610989565b610ba06020830186610a74565b610bad604083018561096b565b610bba6060830184610a74565b95945050505050565b60006020820190508181036000830152610bdc816109e8565b9050919050565b60006020820190508181036000830152610bfc81610a0b565b9050919050565b60006020820190508181036000830152610c1c81610a2e565b9050919050565b60006020820190508181036000830152610c3c81610a51565b9050919050565b6000602082019050610c586000830184610a74565b92915050565b600081519050919050565b600082825260208201905092915050565b600082825260208201905092915050565b6000610c9682610d29565b9150610ca183610d29565b9250827fffffffffffffffffffffffffffffffffffffffffffffffffffffffffffffffff03821115610cd657610cd5610d7a565b5b828201905092915050565b6000610cec82610d09565b9050919050565b60008115159050919050565b6000819050919050565b600073ffffffffffffffffffffffffffffffffffffffff82169050919050565b6000819050919050565b60005b83811015610d51578082015181840152602081019050610d36565b83811115610d60576000848401525b50505050565b6000819050919050565b6000819050919050565b7f4e487b7100000000000000000000000000000000000000000000000000000000600052601160045260246000fd5b6000601f19601f8301169050919050565b7f4e6f7420656e6f756768204c494e4b202d2066696c6c20636f6e74726163742060008201527f7769746820666175636574000000000000000000000000000000000000000000602082015250565b7f524e47206e6f7420726561647920796574000000000000000000000000000000600082015250565b7f4f6e6c7920565246436f6f7264696e61746f722063616e2066756c66696c6c00600082015250565b7f6f6e6c7920596f6c6f4c6f742063616e206578656375746520596f6c6f52616e60008201527f646f6d0000000000000000000000000000000000000000000000000000000000602082015250565b610eb381610ce1565b8114610ebe57600080fd5b50565b610eca81610cf3565b8114610ed557600080fd5b50565b610ee181610cff565b8114610eec57600080fd5b50565b610ef881610d29565b8114610f0357600080fd5b5056fea264697066735822122078f894828fd214020e4bfe632dba33d1e00bd2772f8a8e8cc4ace6df45b9153a64736f6c63430008040033a26469706673582212206266fc6148656ea2e29f4a87ecbee9b966b40f4f5753b646d8bdd877fdbd914f64736f6c63430008040033",
  "linkReferences": {},
  "deployedLinkReferences": {}
}