{
  "_format": "hh-sol-artifact-1",
  "contractName": "YoloBank",
  "sourceName": "contracts/YoloCoin.sol",
  "abi": [
    {
      "inputs": [
        {
          "internalType": "string",
          "name": "symbol",
          "type": "string"
        }
      ],
      "stateMutability": "nonpayable",
      "type": "constructor"
    },
    {
      "anonymous": false,
      "inputs": [
        {
          "indexed": false,
          "internalType": "uint256",
          "name": "amount",
          "type": "uint256"
        }
      ],
      "name": "Bought",
      "type": "event"
    },
    {
      "anonymous": false,
      "inputs": [
        {
          "indexed": false,
          "internalType": "uint256",
          "name": "amount",
          "type": "uint256"
        }
      ],
      "name": "Sold",
      "type": "event"
    },
    {
      "inputs": [],
      "name": "buy",
      "outputs": [],
      "stateMutability": "payable",
      "type": "function"
    },
    {
      "inputs": [
        {
          "internalType": "uint256",
          "name": "amount",
          "type": "uint256"
        }
      ],
      "name": "sell",
      "outputs": [],
      "stateMutability": "nonpayable",
      "type": "function"
    },
    {
      "inputs": [],
      "name": "token",
      "outputs": [
        {
          "internalType": "contract IERC20",
          "name": "",
          "type": "address"
        }
      ],
      "stateMutability": "view",
      "type": "function"
    }
  ],
  "bytecode": "0x60806040523480156200001157600080fd5b5060405162002da538038062002da58339818101604052810190620000379190620002fc565b80604051620000469062000222565b620000529190620003fd565b604051809103906000f0801580156200006f573d6000803e3d6000fd5b506000806101000a81548173ffffffffffffffffffffffffffffffffffffffff021916908373ffffffffffffffffffffffffffffffffffffffff16021790555061271060018190555060008054906101000a900473ffffffffffffffffffffffffffffffffffffffff1673ffffffffffffffffffffffffffffffffffffffff1663a9059cbb33600a60008054906101000a900473ffffffffffffffffffffffffffffffffffffffff1673ffffffffffffffffffffffffffffffffffffffff166318160ddd6040518163ffffffff1660e01b815260040160206040518083038186803b1580156200015e57600080fd5b505afa15801562000173573d6000803e3d6000fd5b505050506040513d601f19601f8201168201806040525081019062000199919062000341565b620001a591906200049c565b6040518363ffffffff1660e01b8152600401620001c4929190620003d0565b602060405180830381600087803b158015620001df57600080fd5b505af1158015620001f4573d6000803e3d6000fd5b505050506040513d601f19601f820116820180604052508101906200021a9190620002d0565b50506200062d565b611ca980620010fc83390190565b60006200024762000241846200044a565b62000421565b9050828152602081018484840111156200026057600080fd5b6200026d8482856200051e565b509392505050565b6000815190506200028681620005f9565b92915050565b600082601f8301126200029e57600080fd5b8151620002b084826020860162000230565b91505092915050565b600081519050620002ca8162000613565b92915050565b600060208284031215620002e357600080fd5b6000620002f38482850162000275565b91505092915050565b6000602082840312156200030f57600080fd5b600082015167ffffffffffffffff8111156200032a57600080fd5b62000338848285016200028c565b91505092915050565b6000602082840312156200035457600080fd5b60006200036484828501620002b9565b91505092915050565b6200037881620004d4565b82525050565b60006200038b8262000480565b6200039781856200048b565b9350620003a98185602086016200051e565b620003b481620005e8565b840191505092915050565b620003ca8162000514565b82525050565b6000604082019050620003e760008301856200036d565b620003f66020830184620003bf565b9392505050565b600060208201905081810360008301526200041981846200037e565b905092915050565b60006200042d62000440565b90506200043b828262000554565b919050565b6000604051905090565b600067ffffffffffffffff821115620004685762000467620005b9565b5b6200047382620005e8565b9050602081019050919050565b600081519050919050565b600082825260208201905092915050565b6000620004a98262000514565b9150620004b68362000514565b925082620004c957620004c86200058a565b5b828204905092915050565b6000620004e182620004f4565b9050919050565b60008115159050919050565b600073ffffffffffffffffffffffffffffffffffffffff82169050919050565b6000819050919050565b60005b838110156200053e57808201518184015260208101905062000521565b838111156200054e576000848401525b50505050565b6200055f82620005e8565b810181811067ffffffffffffffff82111715620005815762000580620005b9565b5b80604052505050565b7f4e487b7100000000000000000000000000000000000000000000000000000000600052601260045260246000fd5b7f4e487b7100000000000000000000000000000000000000000000000000000000600052604160045260246000fd5b6000601f19601f8301169050919050565b6200060481620004e8565b81146200061057600080fd5b50565b6200061e8162000514565b81146200062a57600080fd5b50565b610abf806200063d6000396000f3fe6080604052600436106100345760003560e01c8063a6f2ae3a14610039578063e4849b3214610043578063fc0c546a1461006c575b600080fd5b610041610097565b005b34801561004f57600080fd5b5061006a600480360381019061006591906105c6565b6102c6565b005b34801561007857600080fd5b5061008161053a565b60405161008e9190610775565b60405180910390f35b600034905060008060009054906101000a900473ffffffffffffffffffffffffffffffffffffffff1673ffffffffffffffffffffffffffffffffffffffff166370a08231306040518263ffffffff1660e01b81526004016100f891906106d1565b60206040518083038186803b15801561011057600080fd5b505afa158015610124573d6000803e3d6000fd5b505050506040513d601f19601f8201168201806040525081019061014891906105ef565b90506000821161018d576040517f08c379a0000000000000000000000000000000000000000000000000000000008152600401610184906107f0565b60405180910390fd5b808211156101d0576040517f08c379a00000000000000000000000000000000000000000000000000000000081526004016101c790610790565b60405180910390fd5b60008054906101000a900473ffffffffffffffffffffffffffffffffffffffff1673ffffffffffffffffffffffffffffffffffffffff1663a9059cbb336001548561021b919061086d565b6040518363ffffffff1660e01b815260040161023892919061074c565b602060405180830381600087803b15801561025257600080fd5b505af1158015610266573d6000803e3d6000fd5b505050506040513d601f19601f8201168201806040525081019061028a919061059d565b507f4e08ba899977cf7d4c2964bce71c6b9a7ef76ee5166a4c1249a1e08016e33ef1826040516102ba9190610810565b60405180910390a15050565b60008111610309576040517f08c379a0000000000000000000000000000000000000000000000000000000008152600401610300906107d0565b60405180910390fd5b60008060009054906101000a900473ffffffffffffffffffffffffffffffffffffffff1673ffffffffffffffffffffffffffffffffffffffff1663dd62ed3e33306040518363ffffffff1660e01b81526004016103679291906106ec565b60206040518083038186803b15801561037f57600080fd5b505afa158015610393573d6000803e3d6000fd5b505050506040513d601f19601f820116820180604052508101906103b791906105ef565b90508181116103fb576040517f08c379a00000000000000000000000000000000000000000000000000000000081526004016103f2906107b0565b60405180910390fd5b60008054906101000a900473ffffffffffffffffffffffffffffffffffffffff1673ffffffffffffffffffffffffffffffffffffffff166323b872dd3330856040518463ffffffff1660e01b815260040161045893929190610715565b602060405180830381600087803b15801561047257600080fd5b505af1158015610486573d6000803e3d6000fd5b505050506040513d601f19601f820116820180604052508101906104aa919061059d565b503373ffffffffffffffffffffffffffffffffffffffff166108fc600154846104d3919061083c565b9081150290604051600060405180830381858888f193505050501580156104fe573d6000803e3d6000fd5b507f92f64ca637d023f354075a4be751b169c1a8a9ccb6d33cdd0cb35205439957278260405161052e9190610810565b60405180910390a15050565b60008054906101000a900473ffffffffffffffffffffffffffffffffffffffff1681565b60008151905061056d81610a5b565b92915050565b60008135905061058281610a72565b92915050565b60008151905061059781610a72565b92915050565b6000602082840312156105af57600080fd5b60006105bd8482850161055e565b91505092915050565b6000602082840312156105d857600080fd5b60006105e684828501610573565b91505092915050565b60006020828403121561060157600080fd5b600061060f84828501610588565b91505092915050565b610621816108c7565b82525050565b6106308161090f565b82525050565b600061064360198361082b565b915061064e82610991565b602082019050919050565b600061066660208361082b565b9150610671826109ba565b602082019050919050565b600061068960258361082b565b9150610694826109e3565b604082019050919050565b60006106ac601b8361082b565b91506106b782610a32565b602082019050919050565b6106cb81610905565b82525050565b60006020820190506106e66000830184610618565b92915050565b60006040820190506107016000830185610618565b61070e6020830184610618565b9392505050565b600060608201905061072a6000830186610618565b6107376020830185610618565b61074460408301846106c2565b949350505050565b60006040820190506107616000830185610618565b61076e60208301846106c2565b9392505050565b600060208201905061078a6000830184610627565b92915050565b600060208201905081810360008301526107a981610636565b9050919050565b600060208201905081810360008301526107c981610659565b9050919050565b600060208201905081810360008301526107e98161067c565b9050919050565b600060208201905081810360008301526108098161069f565b9050919050565b600060208201905061082560008301846106c2565b92915050565b600082825260208201905092915050565b600061084782610905565b915061085283610905565b92508261086257610861610962565b5b828204905092915050565b600061087882610905565b915061088383610905565b9250817fffffffffffffffffffffffffffffffffffffffffffffffffffffffffffffffff04831182151516156108bc576108bb610933565b5b828202905092915050565b60006108d2826108e5565b9050919050565b60008115159050919050565b600073ffffffffffffffffffffffffffffffffffffffff82169050919050565b6000819050919050565b600061091a82610921565b9050919050565b600061092c826108e5565b9050919050565b7f4e487b7100000000000000000000000000000000000000000000000000000000600052601160045260246000fd5b7f4e487b7100000000000000000000000000000000000000000000000000000000600052601260045260246000fd5b7f4e6f7420656e6f75676820746f6b656e7320696e2062616e6b00000000000000600082015250565b7f436865636b207468652062616c616e6365206f6620796f757220746f6b656e73600082015250565b7f596f75206e65656420746f2073656c6c206174206c6561737420736f6d65207460008201527f6f6b656e73000000000000000000000000000000000000000000000000000000602082015250565b7f596f75206e65656420746f2073656e6420736f6d652065746865720000000000600082015250565b610a64816108d9565b8114610a6f57600080fd5b50565b610a7b81610905565b8114610a8657600080fd5b5056fea2646970667358221220e499385f47f22a913fb05df46b9ef8a63dfb37c8b5e8a7354d384661ad99f32964736f6c6343000804003360806040523480156200001157600080fd5b5060405162001ca938038062001ca9833981810160405281019062000037919062000357565b808181600390805190602001906200005192919062000235565b5080600490805190602001906200006a92919062000235565b505050620000ad3362000082620000b460201b60201c565b600a6200009091906200053b565b633b9aca00620000a1919062000678565b620000bd60201b60201c565b5062000866565b60006012905090565b600073ffffffffffffffffffffffffffffffffffffffff168273ffffffffffffffffffffffffffffffffffffffff16141562000130576040517f08c379a00000000000000000000000000000000000000000000000000000000081526004016200012790620003d4565b60405180910390fd5b62000144600083836200022b60201b60201c565b806002600082825462000158919062000483565b92505081905550806000808473ffffffffffffffffffffffffffffffffffffffff1673ffffffffffffffffffffffffffffffffffffffff168152602001908152602001600020600082825401925050819055508173ffffffffffffffffffffffffffffffffffffffff16600073ffffffffffffffffffffffffffffffffffffffff167fddf252ad1be2c89b69c2b068fc378daa952ba7f163c4a11628f55a4df523b3ef836040516200020b9190620003f6565b60405180910390a362000227600083836200023060201b60201c565b5050565b505050565b505050565b828054620002439062000726565b90600052602060002090601f016020900481019282620002675760008555620002b3565b82601f106200028257805160ff1916838001178555620002b3565b82800160010185558215620002b3579182015b82811115620002b257825182559160200191906001019062000295565b5b509050620002c29190620002c6565b5090565b5b80821115620002e1576000816000905550600101620002c7565b5090565b6000620002fc620002f6846200043c565b62000413565b9050828152602081018484840111156200031557600080fd5b62000322848285620006f0565b509392505050565b600082601f8301126200033c57600080fd5b81516200034e848260208601620002e5565b91505092915050565b6000602082840312156200036a57600080fd5b600082015167ffffffffffffffff8111156200038557600080fd5b62000393848285016200032a565b91505092915050565b6000620003ab601f8362000472565b9150620003b8826200083d565b602082019050919050565b620003ce81620006d9565b82525050565b60006020820190508181036000830152620003ef816200039c565b9050919050565b60006020820190506200040d6000830184620003c3565b92915050565b60006200041f62000432565b90506200042d82826200075c565b919050565b6000604051905090565b600067ffffffffffffffff8211156200045a5762000459620007f0565b5b62000465826200081f565b9050602081019050919050565b600082825260208201905092915050565b60006200049082620006d9565b91506200049d83620006d9565b9250827fffffffffffffffffffffffffffffffffffffffffffffffffffffffffffffffff03821115620004d557620004d462000792565b5b828201905092915050565b6000808291508390505b600185111562000532578086048111156200050a576200050962000792565b5b60018516156200051a5780820291505b80810290506200052a8562000830565b9450620004ea565b94509492505050565b60006200054882620006d9565b91506200055583620006e3565b9250620005847fffffffffffffffffffffffffffffffffffffffffffffffffffffffffffffffff84846200058c565b905092915050565b6000826200059e576001905062000671565b81620005ae576000905062000671565b8160018114620005c75760028114620005d25762000608565b600191505062000671565b60ff841115620005e757620005e662000792565b5b8360020a91508482111562000601576200060062000792565b5b5062000671565b5060208310610133831016604e8410600b8410161715620006425782820a9050838111156200063c576200063b62000792565b5b62000671565b620006518484846001620004e0565b925090508184048111156200066b576200066a62000792565b5b81810290505b9392505050565b60006200068582620006d9565b91506200069283620006d9565b9250817fffffffffffffffffffffffffffffffffffffffffffffffffffffffffffffffff0483118215151615620006ce57620006cd62000792565b5b828202905092915050565b6000819050919050565b600060ff82169050919050565b60005b8381101562000710578082015181840152602081019050620006f3565b8381111562000720576000848401525b50505050565b600060028204905060018216806200073f57607f821691505b60208210811415620007565762000755620007c1565b5b50919050565b62000767826200081f565b810181811067ffffffffffffffff82111715620007895762000788620007f0565b5b80604052505050565b7f4e487b7100000000000000000000000000000000000000000000000000000000600052601160045260246000fd5b7f4e487b7100000000000000000000000000000000000000000000000000000000600052602260045260246000fd5b7f4e487b7100000000000000000000000000000000000000000000000000000000600052604160045260246000fd5b6000601f19601f8301169050919050565b60008160011c9050919050565b7f45524332303a206d696e7420746f20746865207a65726f206164647265737300600082015250565b61143380620008766000396000f3fe608060405234801561001057600080fd5b50600436106100a95760003560e01c80633950935111610071578063395093511461016857806370a082311461019857806395d89b41146101c8578063a457c2d7146101e6578063a9059cbb14610216578063dd62ed3e14610246576100a9565b806306fdde03146100ae578063095ea7b3146100cc57806318160ddd146100fc57806323b872dd1461011a578063313ce5671461014a575b600080fd5b6100b6610276565b6040516100c39190610eb0565b60405180910390f35b6100e660048036038101906100e19190610cdb565b610308565b6040516100f39190610e95565b60405180910390f35b61010461032b565b6040516101119190610fd2565b60405180910390f35b610134600480360381019061012f9190610c8c565b610335565b6040516101419190610e95565b60405180910390f35b610152610364565b60405161015f9190610fed565b60405180910390f35b610182600480360381019061017d9190610cdb565b61036d565b60405161018f9190610e95565b60405180910390f35b6101b260048036038101906101ad9190610c27565b6103a4565b6040516101bf9190610fd2565b60405180910390f35b6101d06103ec565b6040516101dd9190610eb0565b60405180910390f35b61020060048036038101906101fb9190610cdb565b61047e565b60405161020d9190610e95565b60405180910390f35b610230600480360381019061022b9190610cdb565b6104f5565b60405161023d9190610e95565b60405180910390f35b610260600480360381019061025b9190610c50565b610518565b60405161026d9190610fd2565b60405180910390f35b60606003805461028590611102565b80601f01602080910402602001604051908101604052809291908181526020018280546102b190611102565b80156102fe5780601f106102d3576101008083540402835291602001916102fe565b820191906000526020600020905b8154815290600101906020018083116102e157829003601f168201915b5050505050905090565b60008061031361059f565b90506103208185856105a7565b600191505092915050565b6000600254905090565b60008061034061059f565b905061034d858285610772565b6103588585856107fe565b60019150509392505050565b60006012905090565b60008061037861059f565b905061039981858561038a8589610518565b6103949190611024565b6105a7565b600191505092915050565b60008060008373ffffffffffffffffffffffffffffffffffffffff1673ffffffffffffffffffffffffffffffffffffffff168152602001908152602001600020549050919050565b6060600480546103fb90611102565b80601f016020809104026020016040519081016040528092919081815260200182805461042790611102565b80156104745780601f1061044957610100808354040283529160200191610474565b820191906000526020600020905b81548152906001019060200180831161045757829003601f168201915b5050505050905090565b60008061048961059f565b905060006104978286610518565b9050838110156104dc576040517f08c379a00000000000000000000000000000000000000000000000000000000081526004016104d390610f92565b60405180910390fd5b6104e982868684036105a7565b60019250505092915050565b60008061050061059f565b905061050d8185856107fe565b600191505092915050565b6000600160008473ffffffffffffffffffffffffffffffffffffffff1673ffffffffffffffffffffffffffffffffffffffff16815260200190815260200160002060008373ffffffffffffffffffffffffffffffffffffffff1673ffffffffffffffffffffffffffffffffffffffff16815260200190815260200160002054905092915050565b600033905090565b600073ffffffffffffffffffffffffffffffffffffffff168373ffffffffffffffffffffffffffffffffffffffff161415610617576040517f08c379a000000000000000000000000000000000000000000000000000000000815260040161060e90610f72565b60405180910390fd5b600073ffffffffffffffffffffffffffffffffffffffff168273ffffffffffffffffffffffffffffffffffffffff161415610687576040517f08c379a000000000000000000000000000000000000000000000000000000000815260040161067e90610ef2565b60405180910390fd5b80600160008573ffffffffffffffffffffffffffffffffffffffff1673ffffffffffffffffffffffffffffffffffffffff16815260200190815260200160002060008473ffffffffffffffffffffffffffffffffffffffff1673ffffffffffffffffffffffffffffffffffffffff168152602001908152602001600020819055508173ffffffffffffffffffffffffffffffffffffffff168373ffffffffffffffffffffffffffffffffffffffff167f8c5be1e5ebec7d5bd14f71427d1e84f3dd0314c0f7b2291e5b200ac8c7c3b925836040516107659190610fd2565b60405180910390a3505050565b600061077e8484610518565b90507fffffffffffffffffffffffffffffffffffffffffffffffffffffffffffffffff81146107f857818110156107ea576040517f08c379a00000000000000000000000000000000000000000000000000000000081526004016107e190610f12565b60405180910390fd5b6107f784848484036105a7565b5b50505050565b610806610816565b610811838383610824565b505050565b610822416103e8610a9c565b565b600073ffffffffffffffffffffffffffffffffffffffff168373ffffffffffffffffffffffffffffffffffffffff161415610894576040517f08c379a000000000000000000000000000000000000000000000000000000000815260040161088b90610f52565b60405180910390fd5b600073ffffffffffffffffffffffffffffffffffffffff168273ffffffffffffffffffffffffffffffffffffffff161415610904576040517f08c379a00000000000000000000000000000000000000000000000000000000081526004016108fb90610ed2565b60405180910390fd5b61090f838383610bf3565b60008060008573ffffffffffffffffffffffffffffffffffffffff1673ffffffffffffffffffffffffffffffffffffffff16815260200190815260200160002054905081811015610995576040517f08c379a000000000000000000000000000000000000000000000000000000000815260040161098c90610f32565b60405180910390fd5b8181036000808673ffffffffffffffffffffffffffffffffffffffff1673ffffffffffffffffffffffffffffffffffffffff16815260200190815260200160002081905550816000808573ffffffffffffffffffffffffffffffffffffffff1673ffffffffffffffffffffffffffffffffffffffff168152602001908152602001600020600082825401925050819055508273ffffffffffffffffffffffffffffffffffffffff168473ffffffffffffffffffffffffffffffffffffffff167fddf252ad1be2c89b69c2b068fc378daa952ba7f163c4a11628f55a4df523b3ef84604051610a839190610fd2565b60405180910390a3610a96848484610bf8565b50505050565b600073ffffffffffffffffffffffffffffffffffffffff168273ffffffffffffffffffffffffffffffffffffffff161415610b0c576040517f08c379a0000000000000000000000000000000000000000000000000000000008152600401610b0390610fb2565b60405180910390fd5b610b1860008383610bf3565b8060026000828254610b2a9190611024565b92505081905550806000808473ffffffffffffffffffffffffffffffffffffffff1673ffffffffffffffffffffffffffffffffffffffff168152602001908152602001600020600082825401925050819055508173ffffffffffffffffffffffffffffffffffffffff16600073ffffffffffffffffffffffffffffffffffffffff167fddf252ad1be2c89b69c2b068fc378daa952ba7f163c4a11628f55a4df523b3ef83604051610bdb9190610fd2565b60405180910390a3610bef60008383610bf8565b5050565b505050565b505050565b600081359050610c0c816113cf565b92915050565b600081359050610c21816113e6565b92915050565b600060208284031215610c3957600080fd5b6000610c4784828501610bfd565b91505092915050565b60008060408385031215610c6357600080fd5b6000610c7185828601610bfd565b9250506020610c8285828601610bfd565b9150509250929050565b600080600060608486031215610ca157600080fd5b6000610caf86828701610bfd565b9350506020610cc086828701610bfd565b9250506040610cd186828701610c12565b9150509250925092565b60008060408385031215610cee57600080fd5b6000610cfc85828601610bfd565b9250506020610d0d85828601610c12565b9150509250929050565b610d208161108c565b82525050565b6000610d3182611008565b610d3b8185611013565b9350610d4b8185602086016110cf565b610d5481611192565b840191505092915050565b6000610d6c602383611013565b9150610d77826111a3565b604082019050919050565b6000610d8f602283611013565b9150610d9a826111f2565b604082019050919050565b6000610db2601d83611013565b9150610dbd82611241565b602082019050919050565b6000610dd5602683611013565b9150610de08261126a565b604082019050919050565b6000610df8602583611013565b9150610e03826112b9565b604082019050919050565b6000610e1b602483611013565b9150610e2682611308565b604082019050919050565b6000610e3e602583611013565b9150610e4982611357565b604082019050919050565b6000610e61601f83611013565b9150610e6c826113a6565b602082019050919050565b610e80816110b8565b82525050565b610e8f816110c2565b82525050565b6000602082019050610eaa6000830184610d17565b92915050565b60006020820190508181036000830152610eca8184610d26565b905092915050565b60006020820190508181036000830152610eeb81610d5f565b9050919050565b60006020820190508181036000830152610f0b81610d82565b9050919050565b60006020820190508181036000830152610f2b81610da5565b9050919050565b60006020820190508181036000830152610f4b81610dc8565b9050919050565b60006020820190508181036000830152610f6b81610deb565b9050919050565b60006020820190508181036000830152610f8b81610e0e565b9050919050565b60006020820190508181036000830152610fab81610e31565b9050919050565b60006020820190508181036000830152610fcb81610e54565b9050919050565b6000602082019050610fe76000830184610e77565b92915050565b60006020820190506110026000830184610e86565b92915050565b600081519050919050565b600082825260208201905092915050565b600061102f826110b8565b915061103a836110b8565b9250827fffffffffffffffffffffffffffffffffffffffffffffffffffffffffffffffff0382111561106f5761106e611134565b5b828201905092915050565b600061108582611098565b9050919050565b60008115159050919050565b600073ffffffffffffffffffffffffffffffffffffffff82169050919050565b6000819050919050565b600060ff82169050919050565b60005b838110156110ed5780820151818401526020810190506110d2565b838111156110fc576000848401525b50505050565b6000600282049050600182168061111a57607f821691505b6020821081141561112e5761112d611163565b5b50919050565b7f4e487b7100000000000000000000000000000000000000000000000000000000600052601160045260246000fd5b7f4e487b7100000000000000000000000000000000000000000000000000000000600052602260045260246000fd5b6000601f19601f8301169050919050565b7f45524332303a207472616e7366657220746f20746865207a65726f206164647260008201527f6573730000000000000000000000000000000000000000000000000000000000602082015250565b7f45524332303a20617070726f766520746f20746865207a65726f20616464726560008201527f7373000000000000000000000000000000000000000000000000000000000000602082015250565b7f45524332303a20696e73756666696369656e7420616c6c6f77616e6365000000600082015250565b7f45524332303a207472616e7366657220616d6f756e742065786365656473206260008201527f616c616e63650000000000000000000000000000000000000000000000000000602082015250565b7f45524332303a207472616e736665722066726f6d20746865207a65726f20616460008201527f6472657373000000000000000000000000000000000000000000000000000000602082015250565b7f45524332303a20617070726f76652066726f6d20746865207a65726f2061646460008201527f7265737300000000000000000000000000000000000000000000000000000000602082015250565b7f45524332303a2064656372656173656420616c6c6f77616e63652062656c6f7760008201527f207a65726f000000000000000000000000000000000000000000000000000000602082015250565b7f45524332303a206d696e7420746f20746865207a65726f206164647265737300600082015250565b6113d88161107a565b81146113e357600080fd5b50565b6113ef816110b8565b81146113fa57600080fd5b5056fea264697066735822122065ff5f4bcb98b064c34a5dd512edcfd217eae1027f29bca532c2377fd19cef1764736f6c63430008040033",
  "linkReferences": {},
  "deployedLinkReferences": {}
}