{
  "_format": "hh-sol-artifact-1",
  "contractName": "YoloLot",
  "sourceName": "contracts/YoloLot.sol",
  "abi": [
    {
      "inputs": [
        {
          "internalType": "address",
          "name": "randomAddress",
          "type": "address"
        },
        {
          "internalType": "address",
          "name": "yoloCoin",
          "type": "address"
        }
      ],
      "stateMutability": "nonpayable",
      "type": "constructor"
    },
    {
      "anonymous": false,
      "inputs": [
        {
          "indexed": false,
          "internalType": "address",
          "name": "",
          "type": "address"
        }
      ],
      "name": "YoloLotDraw",
      "type": "event"
    },
    {
      "anonymous": false,
      "inputs": [
        {
          "indexed": false,
          "internalType": "address",
          "name": "",
          "type": "address"
        },
        {
          "indexed": false,
          "internalType": "address",
          "name": "",
          "type": "address"
        }
      ],
      "name": "YoloLotWinner",
      "type": "event"
    },
    {
      "inputs": [],
      "name": "confirm",
      "outputs": [],
      "stateMutability": "nonpayable",
      "type": "function"
    },
    {
      "inputs": [
        {
          "internalType": "bytes32",
          "name": "requestId_",
          "type": "bytes32"
        },
        {
          "internalType": "uint256",
          "name": "randomness",
          "type": "uint256"
        }
      ],
      "name": "consume",
      "outputs": [],
      "stateMutability": "nonpayable",
      "type": "function"
    },
    {
      "inputs": [],
      "name": "draw",
      "outputs": [],
      "stateMutability": "nonpayable",
      "type": "function"
    },
    {
      "inputs": [
        {
          "internalType": "uint256",
          "name": "amount",
          "type": "uint256"
        }
      ],
      "name": "enter",
      "outputs": [],
      "stateMutability": "nonpayable",
      "type": "function"
    },
    {
      "inputs": [],
      "name": "getExpiryDate",
      "outputs": [
        {
          "internalType": "uint256",
          "name": "",
          "type": "uint256"
        }
      ],
      "stateMutability": "view",
      "type": "function"
    },
    {
      "inputs": [],
      "name": "reward",
      "outputs": [],
      "stateMutability": "nonpayable",
      "type": "function"
    },
    {
      "inputs": [],
      "name": "viewPool",
      "outputs": [
        {
          "internalType": "uint256",
          "name": "",
          "type": "uint256"
        }
      ],
      "stateMutability": "view",
      "type": "function"
    }
  ],
  "bytecode": "0x60806040523480156200001157600080fd5b5060405162000e1a38038062000e1a8339818101604052810190620000379190620000f7565b81600360006101000a81548173ffffffffffffffffffffffffffffffffffffffff021916908373ffffffffffffffffffffffffffffffffffffffff160217905550806000806101000a81548173ffffffffffffffffffffffffffffffffffffffff021916908373ffffffffffffffffffffffffffffffffffffffff1602179055504260048190555062093a80600454620000d2919062000138565b60058190555050506200021c565b600081519050620000f18162000202565b92915050565b600080604083850312156200010b57600080fd5b60006200011b85828601620000e0565b92505060206200012e85828601620000e0565b9150509250929050565b60006200014582620001c9565b91506200015283620001c9565b9250827fffffffffffffffffffffffffffffffffffffffffffffffffffffffffffffffff038211156200018a5762000189620001d3565b5b828201905092915050565b6000620001a282620001a9565b9050919050565b600073ffffffffffffffffffffffffffffffffffffffff82169050919050565b6000819050919050565b7f4e487b7100000000000000000000000000000000000000000000000000000000600052601160045260246000fd5b6200020d8162000195565b81146200021957600080fd5b50565b610bee806200022c6000396000f3fe608060405234801561001057600080fd5b506004361061007d5760003560e01c80637022b58e1161005b5780637022b58e146100b457806384e78c6d146100be57806398017489146100dc578063a59f3e0c146100f85761007d565b80630eecae2114610082578063228cb7331461008c5780632d8ed84a14610096575b600080fd5b61008a610114565b005b61009461024b565b005b61009e6103c4565b6040516100ab9190610a1e565b60405180910390f35b6100bc6103ce565b005b6100c661049a565b6040516100d39190610a1e565b60405180910390f35b6100f660048036038101906100f19190610847565b6104e1565b005b610112600480360381019061010d9190610883565b610565565b005b60055442101561012357600080fd5b6000801b6007541461016a576040517f08c379a0000000000000000000000000000000000000000000000000000000008152600401610161906109de565b60405180910390fd5b600360009054906101000a900473ffffffffffffffffffffffffffffffffffffffff1673ffffffffffffffffffffffffffffffffffffffff16638678a7b26040518163ffffffff1660e01b8152600401602060405180830381600087803b1580156101d457600080fd5b505af11580156101e8573d6000803e3d6000fd5b505050506040513d601f19601f8201168201806040525081019061020c919061081e565b6007819055507f3dbe03a49ee50cf72c26b79996df794766412de32aac6e5827113e88aae06f54336040516102419190610948565b60405180910390a1565b60055442101561025a57600080fd5b600073ffffffffffffffffffffffffffffffffffffffff16600660009054906101000a900473ffffffffffffffffffffffffffffffffffffffff1673ffffffffffffffffffffffffffffffffffffffff1614156102b657600080fd5b3373ffffffffffffffffffffffffffffffffffffffff16600660009054906101000a900473ffffffffffffffffffffffffffffffffffffffff1673ffffffffffffffffffffffffffffffffffffffff161461031057600080fd5b60008054906101000a900473ffffffffffffffffffffffffffffffffffffffff1673ffffffffffffffffffffffffffffffffffffffff166323b872dd30336002546040518463ffffffff1660e01b815260040161036f9392919061098c565b602060405180830381600087803b15801561038957600080fd5b505af115801561039d573d6000803e3d6000fd5b505050506040513d601f19601f820116820180604052508101906103c191906107f5565b50565b6000600554905090565b6005544210156103dd57600080fd5b6000600360009054906101000a900473ffffffffffffffffffffffffffffffffffffffff1673ffffffffffffffffffffffffffffffffffffffff1663cb923ccd6007546040518263ffffffff1660e01b815260040161043c91906109c3565b60206040518083038186803b15801561045457600080fd5b505afa158015610468573d6000803e3d6000fd5b505050506040513d601f19601f8201168201806040525081019061048c91906108ac565b905061049781610789565b50565b6000600160003373ffffffffffffffffffffffffffffffffffffffff1673ffffffffffffffffffffffffffffffffffffffff16815260200190815260200160002054905090565b3373ffffffffffffffffffffffffffffffffffffffff16600360009054906101000a900473ffffffffffffffffffffffffffffffffffffffff1673ffffffffffffffffffffffffffffffffffffffff161461053b57600080fd5b60055442101561054a57600080fd5b816007541461055857600080fd5b61056181610789565b5050565b600554421061057357600080fd5b60008060009054906101000a900473ffffffffffffffffffffffffffffffffffffffff1673ffffffffffffffffffffffffffffffffffffffff1663dd62ed3e33306040518363ffffffff1660e01b81526004016105d1929190610963565b60206040518083038186803b1580156105e957600080fd5b505afa1580156105fd573d6000803e3d6000fd5b505050506040513d601f19601f8201168201806040525081019061062191906108ac565b905081811015610666576040517f08c379a000000000000000000000000000000000000000000000000000000000815260040161065d906109fe565b60405180910390fd5b60008054906101000a900473ffffffffffffffffffffffffffffffffffffffff1673ffffffffffffffffffffffffffffffffffffffff166323b872dd3330856040518463ffffffff1660e01b81526004016106c39392919061098c565b602060405180830381600087803b1580156106dd57600080fd5b505af11580156106f1573d6000803e3d6000fd5b505050506040513d601f19601f8201168201806040525081019061071591906107f5565b5081600160003373ffffffffffffffffffffffffffffffffffffffff1673ffffffffffffffffffffffffffffffffffffffff16815260200190815260200160002060008282546107659190610a4a565b92505081905550816002600082825461077e9190610a4a565b925050819055505050565b50565b60008151905061079b81610b73565b92915050565b6000813590506107b081610b8a565b92915050565b6000815190506107c581610b8a565b92915050565b6000813590506107da81610ba1565b92915050565b6000815190506107ef81610ba1565b92915050565b60006020828403121561080757600080fd5b60006108158482850161078c565b91505092915050565b60006020828403121561083057600080fd5b600061083e848285016107b6565b91505092915050565b6000806040838503121561085a57600080fd5b6000610868858286016107a1565b9250506020610879858286016107cb565b9150509250929050565b60006020828403121561089557600080fd5b60006108a3848285016107cb565b91505092915050565b6000602082840312156108be57600080fd5b60006108cc848285016107e0565b91505092915050565b6108de81610aa0565b82525050565b6108ed81610abe565b82525050565b6000610900601283610a39565b915061090b82610b21565b602082019050919050565b6000610923601983610a39565b915061092e82610b4a565b602082019050919050565b61094281610ae8565b82525050565b600060208201905061095d60008301846108d5565b92915050565b600060408201905061097860008301856108d5565b61098560208301846108d5565b9392505050565b60006060820190506109a160008301866108d5565b6109ae60208301856108d5565b6109bb6040830184610939565b949350505050565b60006020820190506109d860008301846108e4565b92915050565b600060208201905081810360008301526109f7816108f3565b9050919050565b60006020820190508181036000830152610a1781610916565b9050919050565b6000602082019050610a336000830184610939565b92915050565b600082825260208201905092915050565b6000610a5582610ae8565b9150610a6083610ae8565b9250827fffffffffffffffffffffffffffffffffffffffffffffffffffffffffffffffff03821115610a9557610a94610af2565b5b828201905092915050565b6000610aab82610ac8565b9050919050565b60008115159050919050565b6000819050919050565b600073ffffffffffffffffffffffffffffffffffffffff82169050919050565b6000819050919050565b7f4e487b7100000000000000000000000000000000000000000000000000000000600052601160045260246000fd5b7f43616e206f6e6c792064726177206f6e63650000000000000000000000000000600082015250565b7f436865636b2074686520746f6b656e20616c6c6f77616e636500000000000000600082015250565b610b7c81610ab2565b8114610b8757600080fd5b50565b610b9381610abe565b8114610b9e57600080fd5b50565b610baa81610ae8565b8114610bb557600080fd5b5056fea2646970667358221220fff023c5b606887388549c4080d5bc8a9aa0646d726f871cdcc56ee49c8f9e0964736f6c63430008040033",
  "linkReferences": {},
  "deployedLinkReferences": {}
}