{
  "_format": "hh-sol-artifact-1",
  "contractName": "YoloLot",
  "sourceName": "contracts/YoloLot.sol",
  "abi": [
    {
      "inputs": [
        {
          "internalType": "address",
          "name": "randomAddress",
          "type": "address"
        },
        {
          "internalType": "address",
          "name": "yoloCoin",
          "type": "address"
        }
      ],
      "stateMutability": "nonpayable",
      "type": "constructor"
    },
    {
      "anonymous": false,
      "inputs": [],
      "name": "YoloLotDraw",
      "type": "event"
    },
    {
      "anonymous": false,
      "inputs": [
        {
          "indexed": false,
          "internalType": "address",
          "name": "",
          "type": "address"
        }
      ],
      "name": "YoloLotWinner",
      "type": "event"
    },
    {
      "inputs": [],
      "name": "confirm",
      "outputs": [],
      "stateMutability": "nonpayable",
      "type": "function"
    },
    {
      "inputs": [
        {
          "internalType": "uint256",
          "name": "requestId_",
          "type": "uint256"
        },
        {
          "internalType": "uint256[]",
          "name": "randomness",
          "type": "uint256[]"
        }
      ],
      "name": "consume",
      "outputs": [],
      "stateMutability": "nonpayable",
      "type": "function"
    },
    {
      "inputs": [],
      "name": "draw",
      "outputs": [],
      "stateMutability": "nonpayable",
      "type": "function"
    },
    {
      "inputs": [
        {
          "internalType": "uint256",
          "name": "amount",
          "type": "uint256"
        }
      ],
      "name": "enter",
      "outputs": [],
      "stateMutability": "nonpayable",
      "type": "function"
    },
    {
      "inputs": [],
      "name": "getExpiryDate",
      "outputs": [
        {
          "internalType": "uint256",
          "name": "",
          "type": "uint256"
        }
      ],
      "stateMutability": "view",
      "type": "function"
    },
    {
      "inputs": [],
      "name": "viewPool",
      "outputs": [
        {
          "internalType": "uint256",
          "name": "",
          "type": "uint256"
        }
      ],
      "stateMutability": "view",
      "type": "function"
    },
    {
      "inputs": [],
      "name": "withdraw",
      "outputs": [],
      "stateMutability": "nonpayable",
      "type": "function"
    }
  ],
  "bytecode": "0x60806040523480156200001157600080fd5b50604051620019073803806200190783398181016040528101906200003791906200012f565b81600460006101000a81548173ffffffffffffffffffffffffffffffffffffffff021916908373ffffffffffffffffffffffffffffffffffffffff160217905550806000806101000a81548173ffffffffffffffffffffffffffffffffffffffff021916908373ffffffffffffffffffffffffffffffffffffffff1602179055504260058190555062093a80600554620000d2919062000170565b6006819055506001600960006101000a81548160ff021916908360ff1602179055506005600960016101000a81548160ff021916908360ff160217905550505062000254565b60008151905062000129816200023a565b92915050565b600080604083850312156200014357600080fd5b6000620001538582860162000118565b9250506020620001668582860162000118565b9150509250929050565b60006200017d8262000201565b91506200018a8362000201565b9250827fffffffffffffffffffffffffffffffffffffffffffffffffffffffffffffffff03821115620001c257620001c16200020b565b5b828201905092915050565b6000620001da82620001e1565b9050919050565b600073ffffffffffffffffffffffffffffffffffffffff82169050919050565b6000819050919050565b7f4e487b7100000000000000000000000000000000000000000000000000000000600052601160045260246000fd5b6200024581620001cd565b81146200025157600080fd5b50565b6116a380620002646000396000f3fe608060405234801561001057600080fd5b506004361061007d5760003560e01c80637022b58e1161005b5780637022b58e146100b457806384e78c6d146100be578063a59f3e0c146100dc578063afce07c9146100f85761007d565b80630eecae21146100825780632d8ed84a1461008c5780633ccfd60b146100aa575b600080fd5b61008a610114565b005b610094610278565b6040516100a191906111f4565b60405180910390f35b6100b2610282565b005b6100bc6103ce565b005b6100c661049f565b6040516100d391906111f4565b60405180910390f35b6100f660048036038101906100f1919061103b565b6104e6565b005b610112600480360381019061010d919061108d565b6107b6565b005b60065442101561012357600080fd5b600060085414610168576040517f08c379a000000000000000000000000000000000000000000000000000000000815260040161015f906111b4565b60405180910390fd5b6000600960009054906101000a900460ff16600960019054906101000a900460ff1661019491906112e2565b9050600460009054906101000a900473ffffffffffffffffffffffffffffffffffffffff1673ffffffffffffffffffffffffffffffffffffffff16639fcb5bf0826040518263ffffffff1660e01b81526004016101f1919061120f565b602060405180830381600087803b15801561020b57600080fd5b505af115801561021f573d6000803e3d6000fd5b505050506040513d601f19601f820116820180604052508101906102439190611064565b6008819055507f5481545cf36f449b134c6b9be8be88caac3906eae0bc0e444e9fc2b23d3e3b5960405160405180910390a150565b6000600654905090565b60065442101561029157600080fd5b6000600760003373ffffffffffffffffffffffffffffffffffffffff1673ffffffffffffffffffffffffffffffffffffffff16815260200190815260200160002054116102dd57600080fd5b60008054906101000a900473ffffffffffffffffffffffffffffffffffffffff1673ffffffffffffffffffffffffffffffffffffffff166323b872dd3033600760003373ffffffffffffffffffffffffffffffffffffffff1673ffffffffffffffffffffffffffffffffffffffff168152602001908152602001600020546040518463ffffffff1660e01b81526004016103799392919061117d565b602060405180830381600087803b15801561039357600080fd5b505af11580156103a7573d6000803e3d6000fd5b505050506040513d601f19601f820116820180604052508101906103cb9190611012565b50565b6006544210156103dd57600080fd5b6000600460009054906101000a900473ffffffffffffffffffffffffffffffffffffffff1673ffffffffffffffffffffffffffffffffffffffff1663b37217a46008546040518263ffffffff1660e01b815260040161043c91906111f4565b60006040518083038186803b15801561045457600080fd5b505afa158015610468573d6000803e3d6000fd5b505050506040513d6000823e3d601f19601f820116820180604052508101906104919190610fd1565b905061049c8161083a565b50565b6000600160003373ffffffffffffffffffffffffffffffffffffffff1673ffffffffffffffffffffffffffffffffffffffff16815260200190815260200160002054905090565b60065442106104f457600080fd5b60008060009054906101000a900473ffffffffffffffffffffffffffffffffffffffff1673ffffffffffffffffffffffffffffffffffffffff1663dd62ed3e33306040518363ffffffff1660e01b8152600401610552929190611154565b60206040518083038186803b15801561056a57600080fd5b505afa15801561057e573d6000803e3d6000fd5b505050506040513d601f19601f820116820180604052508101906105a29190611064565b9050818110156105e7576040517f08c379a00000000000000000000000000000000000000000000000000000000081526004016105de906111d4565b60405180910390fd5b60008054906101000a900473ffffffffffffffffffffffffffffffffffffffff1673ffffffffffffffffffffffffffffffffffffffff166323b872dd3330856040518463ffffffff1660e01b81526004016106449392919061117d565b602060405180830381600087803b15801561065e57600080fd5b505af1158015610672573d6000803e3d6000fd5b505050506040513d601f19601f820116820180604052508101906106969190611012565b506000600160003373ffffffffffffffffffffffffffffffffffffffff1673ffffffffffffffffffffffffffffffffffffffff168152602001908152602001600020541415610743576002339080600181540180825580915050600190039060005260206000200160009091909190916101000a81548173ffffffffffffffffffffffffffffffffffffffff021916908373ffffffffffffffffffffffffffffffffffffffff1602179055505b81600160003373ffffffffffffffffffffffffffffffffffffffff1673ffffffffffffffffffffffffffffffffffffffff1681526020019081526020016000206000828254610792919061128c565b9250508190555081600360008282546107ab919061128c565b925050819055505050565b3373ffffffffffffffffffffffffffffffffffffffff16600460009054906101000a900473ffffffffffffffffffffffffffffffffffffffff1673ffffffffffffffffffffffffffffffffffffffff161461081057600080fd5b60065442101561081f57600080fd5b816008541461082d57600080fd5b6108368161083a565b5050565b6000600960009054906101000a900460ff16600960019054906101000a900460ff1661086691906112e2565b90508060ff168251146108a2577f4e487b7100000000000000000000000000000000000000000000000000000000600052600160045260246000fd5b600060028054905067ffffffffffffffff8111156108e9577f4e487b7100000000000000000000000000000000000000000000000000000000600052604160045260246000fd5b6040519080825280602002602001820160405280156109175781602001602082028036833780820191505090505b5090506000805b600280549050811015610a33576001600060028381548110610969577f4e487b7100000000000000000000000000000000000000000000000000000000600052603260045260246000fd5b9060005260206000200160009054906101000a900473ffffffffffffffffffffffffffffffffffffffff1673ffffffffffffffffffffffffffffffffffffffff1673ffffffffffffffffffffffffffffffffffffffff16815260200190815260200160002054826109da919061128c565b915081838281518110610a16577f4e487b7100000000000000000000000000000000000000000000000000000000600052603260045260246000fd5b60200260200101818152505080610a2c906114ab565b905061091e565b506000600960009054906101000a900460ff16600a610a5291906113a4565b60ff166009600354610a64919061134a565b610a6e9190611319565b905060005b600960009054906101000a900460ff1660ff168160ff161015610bae576000600354878360ff1681518110610ad1577f4e487b7100000000000000000000000000000000000000000000000000000000600052603260045260246000fd5b6020026020010151610ae3919061151e565b90506000610af18683610d26565b9050836007600060028481548110610b32577f4e487b7100000000000000000000000000000000000000000000000000000000600052603260045260246000fd5b9060005260206000200160009054906101000a900473ffffffffffffffffffffffffffffffffffffffff1673ffffffffffffffffffffffffffffffffffffffff1673ffffffffffffffffffffffffffffffffffffffff16815260200190815260200160002081905550505080610ba7906114f4565b9050610a73565b50600960019054906101000a900460ff16600a610bcb91906113a4565b60ff16600354610bdb9190611319565b90506000600960009054906101000a900460ff1690505b8460ff168160ff161015610d1e576000600354878360ff1681518110610c41577f4e487b7100000000000000000000000000000000000000000000000000000000600052603260045260246000fd5b6020026020010151610c53919061151e565b90506000610c618683610d26565b9050836007600060028481548110610ca2577f4e487b7100000000000000000000000000000000000000000000000000000000600052603260045260246000fd5b9060005260206000200160009054906101000a900473ffffffffffffffffffffffffffffffffffffffff1673ffffffffffffffffffffffffffffffffffffffff1673ffffffffffffffffffffffffffffffffffffffff16815260200190815260200160002081905550505080610d17906114f4565b9050610bf2565b505050505050565b60008083511415610d3a5760009050610e3a565b600080845190505b80821015610dbe576000610d568383610e40565b905084868281518110610d92577f4e487b7100000000000000000000000000000000000000000000000000000000600052603260045260246000fd5b60200260200101511115610da857809150610db8565b600181610db5919061128c565b92505b50610d42565b600082118015610e1957508385600184610dd891906113df565b81518110610e0f577f4e487b7100000000000000000000000000000000000000000000000000000000600052603260045260246000fd5b6020026020010151145b15610e3457600182610e2b91906113df565b92505050610e3a565b81925050505b92915050565b60006002828418610e519190611319565b828416610e5e919061128c565b905092915050565b6000610e79610e748461124f565b61122a565b90508083825260208201905082856020860282011115610e9857600080fd5b60005b85811015610ec85781610eae8882610fa7565b845260208401935060208301925050600181019050610e9b565b5050509392505050565b6000610ee5610ee08461124f565b61122a565b90508083825260208201905082856020860282011115610f0457600080fd5b60005b85811015610f345781610f1a8882610fbc565b845260208401935060208301925050600181019050610f07565b5050509392505050565b600082601f830112610f4f57600080fd5b8135610f5f848260208601610e66565b91505092915050565b600082601f830112610f7957600080fd5b8151610f89848260208601610ed2565b91505092915050565b600081519050610fa18161163f565b92915050565b600081359050610fb681611656565b92915050565b600081519050610fcb81611656565b92915050565b600060208284031215610fe357600080fd5b600082015167ffffffffffffffff811115610ffd57600080fd5b61100984828501610f68565b91505092915050565b60006020828403121561102457600080fd5b600061103284828501610f92565b91505092915050565b60006020828403121561104d57600080fd5b600061105b84828501610fa7565b91505092915050565b60006020828403121561107657600080fd5b600061108484828501610fbc565b91505092915050565b600080604083850312156110a057600080fd5b60006110ae85828601610fa7565b925050602083013567ffffffffffffffff8111156110cb57600080fd5b6110d785828601610f3e565b9150509250929050565b6110ea81611413565b82525050565b60006110fd60128361127b565b9150611108826115ed565b602082019050919050565b600061112060198361127b565b915061112b82611616565b602082019050919050565b61113f81611451565b82525050565b61114e81611468565b82525050565b600060408201905061116960008301856110e1565b61117660208301846110e1565b9392505050565b600060608201905061119260008301866110e1565b61119f60208301856110e1565b6111ac6040830184611136565b949350505050565b600060208201905081810360008301526111cd816110f0565b9050919050565b600060208201905081810360008301526111ed81611113565b9050919050565b60006020820190506112096000830184611136565b92915050565b60006020820190506112246000830184611145565b92915050565b6000611234611245565b9050611240828261147a565b919050565b6000604051905090565b600067ffffffffffffffff82111561126a576112696115ad565b5b602082029050602081019050919050565b600082825260208201905092915050565b600061129782611451565b91506112a283611451565b9250827fffffffffffffffffffffffffffffffffffffffffffffffffffffffffffffffff038211156112d7576112d661154f565b5b828201905092915050565b60006112ed8261145b565b91506112f88361145b565b92508260ff0382111561130e5761130d61154f565b5b828201905092915050565b600061132482611451565b915061132f83611451565b92508261133f5761133e61157e565b5b828204905092915050565b600061135582611451565b915061136083611451565b9250817fffffffffffffffffffffffffffffffffffffffffffffffffffffffffffffffff04831182151516156113995761139861154f565b5b828202905092915050565b60006113af8261145b565b91506113ba8361145b565b92508160ff04831182151516156113d4576113d361154f565b5b828202905092915050565b60006113ea82611451565b91506113f583611451565b9250828210156114085761140761154f565b5b828203905092915050565b600061141e82611431565b9050919050565b60008115159050919050565b600073ffffffffffffffffffffffffffffffffffffffff82169050919050565b6000819050919050565b600060ff82169050919050565b60006114738261145b565b9050919050565b611483826115dc565b810181811067ffffffffffffffff821117156114a2576114a16115ad565b5b80604052505050565b60006114b682611451565b91507fffffffffffffffffffffffffffffffffffffffffffffffffffffffffffffffff8214156114e9576114e861154f565b5b600182019050919050565b60006114ff8261145b565b915060ff8214156115135761151261154f565b5b600182019050919050565b600061152982611451565b915061153483611451565b9250826115445761154361157e565b5b828206905092915050565b7f4e487b7100000000000000000000000000000000000000000000000000000000600052601160045260246000fd5b7f4e487b7100000000000000000000000000000000000000000000000000000000600052601260045260246000fd5b7f4e487b7100000000000000000000000000000000000000000000000000000000600052604160045260246000fd5b6000601f19601f8301169050919050565b7f43616e206f6e6c792064726177206f6e63650000000000000000000000000000600082015250565b7f436865636b2074686520746f6b656e20616c6c6f77616e636500000000000000600082015250565b61164881611425565b811461165357600080fd5b50565b61165f81611451565b811461166a57600080fd5b5056fea26469706673582212206a0c03c0ec1a994ad22e61e4a5537644e4ea1ecdc984c902b6c301468655237f64736f6c63430008040033",
  "linkReferences": {},
  "deployedLinkReferences": {}
}