{
  "_format": "hh-sol-artifact-1",
  "contractName": "YoloRandomMockup",
  "sourceName": "contracts/YoloRandom.sol",
  "abi": [
    {
      "inputs": [
        {
          "internalType": "address",
          "name": "dealer_",
          "type": "address"
        }
      ],
      "stateMutability": "nonpayable",
      "type": "constructor"
    },
    {
      "anonymous": false,
      "inputs": [
        {
          "indexed": false,
          "internalType": "uint256",
          "name": "",
          "type": "uint256"
        }
      ],
      "name": "RandomNumberRequested",
      "type": "event"
    },
    {
      "inputs": [
        {
          "internalType": "uint256",
          "name": "requestId",
          "type": "uint256"
        }
      ],
      "name": "getRandomNumber",
      "outputs": [
        {
          "internalType": "uint256[]",
          "name": "",
          "type": "uint256[]"
        }
      ],
      "stateMutability": "view",
      "type": "function"
    },
    {
      "inputs": [],
      "name": "isAvailable",
      "outputs": [
        {
          "internalType": "bool",
          "name": "",
          "type": "bool"
        }
      ],
      "stateMutability": "view",
      "type": "function"
    },
    {
      "inputs": [
        {
          "internalType": "uint16",
          "name": "numRandom",
          "type": "uint16"
        }
      ],
      "name": "requestRandomNumber",
      "outputs": [
        {
          "internalType": "uint256",
          "name": "",
          "type": "uint256"
        }
      ],
      "stateMutability": "nonpayable",
      "type": "function"
    },
    {
      "inputs": [
        {
          "internalType": "address",
          "name": "consumer_",
          "type": "address"
        }
      ],
      "name": "setConsumer",
      "outputs": [],
      "stateMutability": "nonpayable",
      "type": "function"
    }
  ],
  "bytecode": "0x608060405234801561001057600080fd5b50604051610a31380380610a3183398181016040528101906100329190610090565b8080600160006101000a81548173ffffffffffffffffffffffffffffffffffffffff021916908373ffffffffffffffffffffffffffffffffffffffff1602179055505050610102565b60008151905061008a816100eb565b92915050565b6000602082840312156100a257600080fd5b60006100b08482850161007b565b91505092915050565b60006100c4826100cb565b9050919050565b600073ffffffffffffffffffffffffffffffffffffffff82169050919050565b6100f4816100b9565b81146100ff57600080fd5b50565b610920806101116000396000f3fe608060405234801561001057600080fd5b506004361061004c5760003560e01c806363a579d514610051578063856c71dd1461006d5780639fcb5bf01461008b578063b37217a4146100bb575b600080fd5b61006b60048036038101906100669190610567565b6100eb565b005b610075610188565b60405161008291906106d9565b60405180910390f35b6100a560048036038101906100a09190610590565b610239565b6040516100b2919061072f565b60405180910390f35b6100d560048036038101906100d091906105b9565b61042c565b6040516100e291906106b7565b60405180910390f35b600160009054906101000a900473ffffffffffffffffffffffffffffffffffffffff1673ffffffffffffffffffffffffffffffffffffffff163373ffffffffffffffffffffffffffffffffffffffff161461014557600080fd5b806000806101000a81548173ffffffffffffffffffffffffffffffffffffffff021916908373ffffffffffffffffffffffffffffffffffffffff16021790555050565b6000600160009054906101000a900473ffffffffffffffffffffffffffffffffffffffff1673ffffffffffffffffffffffffffffffffffffffff163373ffffffffffffffffffffffffffffffffffffffff16146101e457600080fd5b600073ffffffffffffffffffffffffffffffffffffffff1660008054906101000a900473ffffffffffffffffffffffffffffffffffffffff1673ffffffffffffffffffffffffffffffffffffffff1614905090565b60008060009054906101000a900473ffffffffffffffffffffffffffffffffffffffff1673ffffffffffffffffffffffffffffffffffffffff163373ffffffffffffffffffffffffffffffffffffffff16146102ca576040517f08c379a00000000000000000000000000000000000000000000000000000000081526004016102c19061070f565b60405180910390fd5b60018261ffff16146102db57600080fd5b8161ffff16600280549050146103e9578161ffff1667ffffffffffffffff81111561032f577f4e487b7100000000000000000000000000000000000000000000000000000000600052604160045260246000fd5b60405190808252806020026020018201604052801561035d5781602001602082028036833780820191505090505b50600290805190602001906103739291906104be565b5060005b8261ffff168161ffff1610156103e75761029a60028261ffff16815481106103c8577f4e487b7100000000000000000000000000000000000000000000000000000000600052603260045260246000fd5b9060005260206000200181905550806103e0906107fc565b9050610377565b505b7f5a82a565b8cc97bc62f2041e057e918f6b3b7b4185104d7d4a52ed5c711e723261030960405161041a91906106f4565b60405180910390a16103099050919050565b60606103098214610466577f4e487b7100000000000000000000000000000000000000000000000000000000600052600160045260246000fd5b60028054806020026020016040519081016040528092919081815260200182805480156104b257602002820191906000526020600020905b81548152602001906001019080831161049e575b50505050509050919050565b8280548282559060005260206000209081019282156104fa579160200282015b828111156104f95782518255916020019190600101906104de565b5b509050610507919061050b565b5090565b5b8082111561052457600081600090555060010161050c565b5090565b600081359050610537816108a5565b92915050565b60008135905061054c816108bc565b92915050565b600081359050610561816108d3565b92915050565b60006020828403121561057957600080fd5b600061058784828501610528565b91505092915050565b6000602082840312156105a257600080fd5b60006105b08482850161053d565b91505092915050565b6000602082840312156105cb57600080fd5b60006105d984828501610552565b91505092915050565b60006105ee8383610699565b60208301905092915050565b60006106058261075a565b61060f8185610772565b935061061a8361074a565b8060005b8381101561064b57815161063288826105e2565b975061063d83610765565b92505060018101905061061e565b5085935050505092915050565b610661816107a6565b82525050565b610670816107ea565b82525050565b6000610683602383610783565b915061068e82610856565b604082019050919050565b6106a2816107e0565b82525050565b6106b1816107e0565b82525050565b600060208201905081810360008301526106d181846105fa565b905092915050565b60006020820190506106ee6000830184610658565b92915050565b60006020820190506107096000830184610667565b92915050565b6000602082019050818103600083015261072881610676565b9050919050565b600060208201905061074460008301846106a8565b92915050565b6000819050602082019050919050565b600081519050919050565b6000602082019050919050565b600082825260208201905092915050565b600082825260208201905092915050565b600061079f826107c0565b9050919050565b60008115159050919050565b600061ffff82169050919050565b600073ffffffffffffffffffffffffffffffffffffffff82169050919050565b6000819050919050565b60006107f5826107e0565b9050919050565b6000610807826107b2565b915061ffff82141561081c5761081b610827565b5b600182019050919050565b7f4e487b7100000000000000000000000000000000000000000000000000000000600052601160045260246000fd5b7f6f6e6c7920596f6c6f4c6f742063616e206578656375746520596f6c6f52616e60008201527f646f6d0000000000000000000000000000000000000000000000000000000000602082015250565b6108ae81610794565b81146108b957600080fd5b50565b6108c5816107b2565b81146108d057600080fd5b50565b6108dc816107e0565b81146108e757600080fd5b5056fea2646970667358221220bd33680d173d79238b37ed41eac9f6c4a01d6e0b18afcaffdaaae1965961245964736f6c63430008040033",
  "linkReferences": {},
  "deployedLinkReferences": {}
}