{
  "_format": "hh-sol-artifact-1",
  "contractName": "YoloRandomChainlink",
  "sourceName": "contracts/YoloRandom.sol",
  "abi": [
    {
      "inputs": [
        {
          "internalType": "address",
          "name": "dealer_",
          "type": "address"
        }
      ],
      "stateMutability": "nonpayable",
      "type": "constructor"
    },
    {
      "inputs": [
        {
          "internalType": "bytes32",
          "name": "requestId",
          "type": "bytes32"
        }
      ],
      "name": "getRandomNumber",
      "outputs": [
        {
          "internalType": "uint256",
          "name": "",
          "type": "uint256"
        }
      ],
      "stateMutability": "view",
      "type": "function"
    },
    {
      "inputs": [],
      "name": "isAvailable",
      "outputs": [
        {
          "internalType": "bool",
          "name": "",
          "type": "bool"
        }
      ],
      "stateMutability": "view",
      "type": "function"
    },
    {
      "inputs": [
        {
          "internalType": "bytes32",
          "name": "requestId",
          "type": "bytes32"
        },
        {
          "internalType": "uint256",
          "name": "randomness",
          "type": "uint256"
        }
      ],
      "name": "rawFulfillRandomness",
      "outputs": [],
      "stateMutability": "nonpayable",
      "type": "function"
    },
    {
      "inputs": [],
      "name": "requestRandomNumber",
      "outputs": [
        {
          "internalType": "bytes32",
          "name": "",
          "type": "bytes32"
        }
      ],
      "stateMutability": "nonpayable",
      "type": "function"
    },
    {
      "inputs": [
        {
          "internalType": "address",
          "name": "consumer_",
          "type": "address"
        }
      ],
      "name": "setConsumer",
      "outputs": [],
      "stateMutability": "nonpayable",
      "type": "function"
    }
  ],
  "bytecode": "0x60c060405234801561001057600080fd5b5060405161114a38038061114a83398181016040528101906100329190610163565b73f0d54349addcf704f77ae15b96510dea15cb795273514910771af9ca656af840dff83e8264ecf986ca8280600160006101000a81548173ffffffffffffffffffffffffffffffffffffffff021916908373ffffffffffffffffffffffffffffffffffffffff160217905550508173ffffffffffffffffffffffffffffffffffffffff1660a08173ffffffffffffffffffffffffffffffffffffffff1660601b815250508073ffffffffffffffffffffffffffffffffffffffff1660808173ffffffffffffffffffffffffffffffffffffffff1660601b8152505050507faa77729d3466ca35ae8d28b3bbac7cc36a5031efdc430821c02bc31a238af44560001b600381905550671bc16d674ec80000600481905550506101d5565b60008151905061015d816101be565b92915050565b60006020828403121561017557600080fd5b60006101838482850161014e565b91505092915050565b60006101978261019e565b9050919050565b600073ffffffffffffffffffffffffffffffffffffffff82169050919050565b6101c78161018c565b81146101d257600080fd5b50565b60805160601c60a05160601c610f3c61020e600039600081816103e601526105590152600081816102e4015261051d0152610f3c6000f3fe608060405234801561001057600080fd5b50600436106100575760003560e01c806363a579d51461005c578063856c71dd146100785780638678a7b21461009657806394985ddd146100b4578063cb923ccd146100d0575b600080fd5b6100766004803603810190610071919061088b565b610100565b005b61008061019d565b60405161008d9190610b1f565b60405180910390f35b61009e61024e565b6040516100ab9190610b3a565b60405180910390f35b6100ce60048036038101906100c99190610906565b6103e4565b005b6100ea60048036038101906100e591906108dd565b610480565b6040516100f79190610c43565b60405180910390f35b600160009054906101000a900473ffffffffffffffffffffffffffffffffffffffff1673ffffffffffffffffffffffffffffffffffffffff163373ffffffffffffffffffffffffffffffffffffffff161461015a57600080fd5b806000806101000a81548173ffffffffffffffffffffffffffffffffffffffff021916908373ffffffffffffffffffffffffffffffffffffffff16021790555050565b6000600160009054906101000a900473ffffffffffffffffffffffffffffffffffffffff1673ffffffffffffffffffffffffffffffffffffffff163373ffffffffffffffffffffffffffffffffffffffff16146101f957600080fd5b600073ffffffffffffffffffffffffffffffffffffffff1660008054906101000a900473ffffffffffffffffffffffffffffffffffffffff1673ffffffffffffffffffffffffffffffffffffffff1614905090565b60008060009054906101000a900473ffffffffffffffffffffffffffffffffffffffff1673ffffffffffffffffffffffffffffffffffffffff163373ffffffffffffffffffffffffffffffffffffffff16146102df576040517f08c379a00000000000000000000000000000000000000000000000000000000081526004016102d690610c23565b60405180910390fd5b6004547f000000000000000000000000000000000000000000000000000000000000000073ffffffffffffffffffffffffffffffffffffffff166370a08231306040518263ffffffff1660e01b815260040161033b9190610ac6565b60206040518083038186803b15801561035357600080fd5b505afa158015610367573d6000803e3d6000fd5b505050506040513d601f19601f8201168201806040525081019061038b9190610942565b116103cb576040517f08c379a00000000000000000000000000000000000000000000000000000000081526004016103c290610bc3565b60405180910390fd5b60006103db600354600454610519565b90508091505090565b7f000000000000000000000000000000000000000000000000000000000000000073ffffffffffffffffffffffffffffffffffffffff163373ffffffffffffffffffffffffffffffffffffffff1614610472576040517f08c379a000000000000000000000000000000000000000000000000000000000815260040161046990610c03565b60405180910390fd5b61047c828261067b565b5050565b60008060056000848152602001908152602001600020604051806040016040529081600082015481526020016001820160009054906101000a900460ff1615151515815250509050806020015161050c576040517f08c379a000000000000000000000000000000000000000000000000000000000815260040161050390610be3565b60405180910390fd5b8060000151915050919050565b60007f000000000000000000000000000000000000000000000000000000000000000073ffffffffffffffffffffffffffffffffffffffff16634000aea07f00000000000000000000000000000000000000000000000000000000000000008486600060405160200161058d929190610b55565b6040516020818303038152906040526040518463ffffffff1660e01b81526004016105ba93929190610ae1565b602060405180830381600087803b1580156105d457600080fd5b505af11580156105e8573d6000803e3d6000fd5b505050506040513d601f19601f8201168201806040525081019061060c91906108b4565b50600061062f8460003060026000898152602001908152602001600020546106e1565b9050600160026000868152602001908152602001600020546106519190610c8b565b6002600086815260200190815260200160002081905550610672848261071d565b91505092915050565b604051806040016040528082815260200160011515815250600560008481526020019081526020016000206000820151816000015560208201518160010160006101000a81548160ff0219169083151502179055509050506106dd8282610750565b5050565b6000848484846040516020016106fa9493929190610b7e565b6040516020818303038152906040528051906020012060001c9050949350505050565b60008282604051602001610732929190610a9a565b60405160208183030381529060405280519060200120905092915050565b60008054906101000a900473ffffffffffffffffffffffffffffffffffffffff1673ffffffffffffffffffffffffffffffffffffffff16639801748983836040518363ffffffff1660e01b81526004016107ab929190610b55565b600060405180830381600087803b1580156107c557600080fd5b505af11580156107d9573d6000803e3d6000fd5b5050505060008060006101000a81548173ffffffffffffffffffffffffffffffffffffffff021916908373ffffffffffffffffffffffffffffffffffffffff1602179055505050565b60008135905061083181610eaa565b92915050565b60008151905061084681610ec1565b92915050565b60008135905061085b81610ed8565b92915050565b60008135905061087081610eef565b92915050565b60008151905061088581610eef565b92915050565b60006020828403121561089d57600080fd5b60006108ab84828501610822565b91505092915050565b6000602082840312156108c657600080fd5b60006108d484828501610837565b91505092915050565b6000602082840312156108ef57600080fd5b60006108fd8482850161084c565b91505092915050565b6000806040838503121561091957600080fd5b60006109278582860161084c565b925050602061093885828601610861565b9150509250929050565b60006020828403121561095457600080fd5b600061096284828501610876565b91505092915050565b61097481610ce1565b82525050565b61098381610cf3565b82525050565b61099281610cff565b82525050565b6109a96109a482610cff565b610d66565b82525050565b60006109ba82610c5e565b6109c48185610c69565b93506109d4818560208601610d33565b6109dd81610da9565b840191505092915050565b60006109f5602b83610c7a565b9150610a0082610dba565b604082019050919050565b6000610a18601183610c7a565b9150610a2382610e09565b602082019050919050565b6000610a3b601f83610c7a565b9150610a4682610e32565b602082019050919050565b6000610a5e602383610c7a565b9150610a6982610e5b565b604082019050919050565b610a7d81610d29565b82525050565b610a94610a8f82610d29565b610d70565b82525050565b6000610aa68285610998565b602082019150610ab68284610a83565b6020820191508190509392505050565b6000602082019050610adb600083018461096b565b92915050565b6000606082019050610af6600083018661096b565b610b036020830185610a74565b8181036040830152610b1581846109af565b9050949350505050565b6000602082019050610b34600083018461097a565b92915050565b6000602082019050610b4f6000830184610989565b92915050565b6000604082019050610b6a6000830185610989565b610b776020830184610a74565b9392505050565b6000608082019050610b936000830187610989565b610ba06020830186610a74565b610bad604083018561096b565b610bba6060830184610a74565b95945050505050565b60006020820190508181036000830152610bdc816109e8565b9050919050565b60006020820190508181036000830152610bfc81610a0b565b9050919050565b60006020820190508181036000830152610c1c81610a2e565b9050919050565b60006020820190508181036000830152610c3c81610a51565b9050919050565b6000602082019050610c586000830184610a74565b92915050565b600081519050919050565b600082825260208201905092915050565b600082825260208201905092915050565b6000610c9682610d29565b9150610ca183610d29565b9250827fffffffffffffffffffffffffffffffffffffffffffffffffffffffffffffffff03821115610cd657610cd5610d7a565b5b828201905092915050565b6000610cec82610d09565b9050919050565b60008115159050919050565b6000819050919050565b600073ffffffffffffffffffffffffffffffffffffffff82169050919050565b6000819050919050565b60005b83811015610d51578082015181840152602081019050610d36565b83811115610d60576000848401525b50505050565b6000819050919050565b6000819050919050565b7f4e487b7100000000000000000000000000000000000000000000000000000000600052601160045260246000fd5b6000601f19601f8301169050919050565b7f4e6f7420656e6f756768204c494e4b202d2066696c6c20636f6e74726163742060008201527f7769746820666175636574000000000000000000000000000000000000000000602082015250565b7f524e47206e6f7420726561647920796574000000000000000000000000000000600082015250565b7f4f6e6c7920565246436f6f7264696e61746f722063616e2066756c66696c6c00600082015250565b7f6f6e6c7920596f6c6f4c6f742063616e206578656375746520596f6c6f52616e60008201527f646f6d0000000000000000000000000000000000000000000000000000000000602082015250565b610eb381610ce1565b8114610ebe57600080fd5b50565b610eca81610cf3565b8114610ed557600080fd5b50565b610ee181610cff565b8114610eec57600080fd5b50565b610ef881610d29565b8114610f0357600080fd5b5056fea264697066735822122078f894828fd214020e4bfe632dba33d1e00bd2772f8a8e8cc4ace6df45b9153a64736f6c63430008040033",
  "linkReferences": {},
  "deployedLinkReferences": {}
}