{
  "_format": "hh-sol-artifact-1",
  "contractName": "YoloRandomChainlink",
  "sourceName": "contracts/YoloRandom.sol",
  "abi": [
    {
      "inputs": [
        {
          "internalType": "address",
          "name": "dealer_",
          "type": "address"
        }
      ],
      "stateMutability": "nonpayable",
      "type": "constructor"
    },
    {
      "anonymous": false,
      "inputs": [
        {
          "indexed": true,
          "internalType": "address",
          "name": "from",
          "type": "address"
        },
        {
          "indexed": true,
          "internalType": "address",
          "name": "to",
          "type": "address"
        }
      ],
      "name": "OwnershipTransferRequested",
      "type": "event"
    },
    {
      "anonymous": false,
      "inputs": [
        {
          "indexed": true,
          "internalType": "address",
          "name": "from",
          "type": "address"
        },
        {
          "indexed": true,
          "internalType": "address",
          "name": "to",
          "type": "address"
        }
      ],
      "name": "OwnershipTransferred",
      "type": "event"
    },
    {
      "anonymous": false,
      "inputs": [
        {
          "indexed": false,
          "internalType": "uint256",
          "name": "requestId",
          "type": "uint256"
        },
        {
          "indexed": false,
          "internalType": "uint256[]",
          "name": "randomWords",
          "type": "uint256[]"
        },
        {
          "indexed": false,
          "internalType": "uint256",
          "name": "payment",
          "type": "uint256"
        }
      ],
      "name": "RequestFulfilled",
      "type": "event"
    },
    {
      "anonymous": false,
      "inputs": [
        {
          "indexed": false,
          "internalType": "uint256",
          "name": "requestId",
          "type": "uint256"
        },
        {
          "indexed": false,
          "internalType": "uint32",
          "name": "numWords",
          "type": "uint32"
        }
      ],
      "name": "RequestSent",
      "type": "event"
    },
    {
      "inputs": [],
      "name": "acceptOwnership",
      "outputs": [],
      "stateMutability": "nonpayable",
      "type": "function"
    },
    {
      "inputs": [
        {
          "internalType": "uint256",
          "name": "requestId",
          "type": "uint256"
        }
      ],
      "name": "getRandomNumber",
      "outputs": [
        {
          "internalType": "uint256[]",
          "name": "",
          "type": "uint256[]"
        }
      ],
      "stateMutability": "view",
      "type": "function"
    },
    {
      "inputs": [],
      "name": "isAvailable",
      "outputs": [
        {
          "internalType": "bool",
          "name": "",
          "type": "bool"
        }
      ],
      "stateMutability": "view",
      "type": "function"
    },
    {
      "inputs": [],
      "name": "lastRequestId",
      "outputs": [
        {
          "internalType": "uint256",
          "name": "",
          "type": "uint256"
        }
      ],
      "stateMutability": "view",
      "type": "function"
    },
    {
      "inputs": [],
      "name": "owner",
      "outputs": [
        {
          "internalType": "address",
          "name": "",
          "type": "address"
        }
      ],
      "stateMutability": "view",
      "type": "function"
    },
    {
      "inputs": [
        {
          "internalType": "uint256",
          "name": "_requestId",
          "type": "uint256"
        },
        {
          "internalType": "uint256[]",
          "name": "_randomWords",
          "type": "uint256[]"
        }
      ],
      "name": "rawFulfillRandomWords",
      "outputs": [],
      "stateMutability": "nonpayable",
      "type": "function"
    },
    {
      "inputs": [
        {
          "internalType": "uint256",
          "name": "",
          "type": "uint256"
        }
      ],
      "name": "requestIds",
      "outputs": [
        {
          "internalType": "uint256",
          "name": "",
          "type": "uint256"
        }
      ],
      "stateMutability": "view",
      "type": "function"
    },
    {
      "inputs": [
        {
          "internalType": "uint16",
          "name": "numRandom",
          "type": "uint16"
        }
      ],
      "name": "requestRandomNumber",
      "outputs": [
        {
          "internalType": "uint256",
          "name": "",
          "type": "uint256"
        }
      ],
      "stateMutability": "nonpayable",
      "type": "function"
    },
    {
      "inputs": [
        {
          "internalType": "uint256",
          "name": "",
          "type": "uint256"
        }
      ],
      "name": "s_requests",
      "outputs": [
        {
          "internalType": "uint256",
          "name": "paid",
          "type": "uint256"
        },
        {
          "internalType": "bool",
          "name": "fulfilled",
          "type": "bool"
        }
      ],
      "stateMutability": "view",
      "type": "function"
    },
    {
      "inputs": [
        {
          "internalType": "address",
          "name": "consumer_",
          "type": "address"
        }
      ],
      "name": "setConsumer",
      "outputs": [],
      "stateMutability": "nonpayable",
      "type": "function"
    },
    {
      "inputs": [
        {
          "internalType": "address",
          "name": "to",
          "type": "address"
        }
      ],
      "name": "transferOwnership",
      "outputs": [],
      "stateMutability": "nonpayable",
      "type": "function"
    },
    {
      "inputs": [],
      "name": "withdrawLink",
      "outputs": [],
      "stateMutability": "nonpayable",
      "type": "function"
    }
  ],
  "bytecode": "0x60c0604052620186a0600760006101000a81548163ffffffff021916908363ffffffff1602179055506003600760046101000a81548161ffff021916908361ffff16021790555073326c977e6efc84e512bb9c30f76e30c160ed06fb600760066101000a81548173ffffffffffffffffffffffffffffffffffffffff021916908373ffffffffffffffffffffffffffffffffffffffff16021790555073708701a1dff4f478de54383e49a627ed4852c816600860006101000a81548173ffffffffffffffffffffffffffffffffffffffff021916908373ffffffffffffffffffffffffffffffffffffffff160217905550348015620000fd57600080fd5b50604051620022b8380380620022b883398181016040528101906200012391906200046e565b80806000600760069054906101000a900473ffffffffffffffffffffffffffffffffffffffff16600860009054906101000a900473ffffffffffffffffffffffffffffffffffffffff168580600160006101000a81548173ffffffffffffffffffffffffffffffffffffffff021916908373ffffffffffffffffffffffffffffffffffffffff160217905550508173ffffffffffffffffffffffffffffffffffffffff1660808173ffffffffffffffffffffffffffffffffffffffff1660601b815250508073ffffffffffffffffffffffffffffffffffffffff1660a08173ffffffffffffffffffffffffffffffffffffffff1660601b815250505050600073ffffffffffffffffffffffffffffffffffffffff168273ffffffffffffffffffffffffffffffffffffffff16141562000293576040517f08c379a00000000000000000000000000000000000000000000000000000000081526004016200028a90620004e8565b60405180910390fd5b81600260006101000a81548173ffffffffffffffffffffffffffffffffffffffff021916908373ffffffffffffffffffffffffffffffffffffffff160217905550600073ffffffffffffffffffffffffffffffffffffffff168173ffffffffffffffffffffffffffffffffffffffff16146200031b576200031a816200032560201b60201c565b5b50505050620005dd565b3373ffffffffffffffffffffffffffffffffffffffff168173ffffffffffffffffffffffffffffffffffffffff16141562000397576040517f08c379a00000000000000000000000000000000000000000000000000000000081526004016200038e906200050a565b60405180910390fd5b80600360006101000a81548173ffffffffffffffffffffffffffffffffffffffff021916908373ffffffffffffffffffffffffffffffffffffffff1602179055508073ffffffffffffffffffffffffffffffffffffffff16600260009054906101000a900473ffffffffffffffffffffffffffffffffffffffff1673ffffffffffffffffffffffffffffffffffffffff167fed8889f560326eb138920d842192f0eb3dd22b4f139c87a2c57538e05bae127860405160405180910390a350565b6000815190506200046881620005c3565b92915050565b6000602082840312156200048157600080fd5b6000620004918482850162000457565b91505092915050565b6000620004a96018836200052c565b9150620004b68262000571565b602082019050919050565b6000620004d06017836200052c565b9150620004dd826200059a565b602082019050919050565b6000602082019050818103600083015262000503816200049a565b9050919050565b600060208201905081810360008301526200052581620004c1565b9050919050565b600082825260208201905092915050565b60006200054a8262000551565b9050919050565b600073ffffffffffffffffffffffffffffffffffffffff82169050919050565b7f43616e6e6f7420736574206f776e657220746f207a65726f0000000000000000600082015250565b7f43616e6e6f74207472616e7366657220746f2073656c66000000000000000000600082015250565b620005ce816200053d565b8114620005da57600080fd5b50565b60805160601c60a05160601c611c93620006256000396000818161023e015281816107d401528181610d8101528181610da20152610ee001526000610d450152611c936000f3fe608060405234801561001057600080fd5b50600436106100b45760003560e01c80638dc654a2116100715780638dc654a2146101675780639fcb5bf014610171578063a168fa89146101a1578063b37217a4146101d2578063f2fde38b14610202578063fc2a88c31461021e576100b4565b80631fe543e3146100b957806363a579d5146100d557806379ba5097146100f1578063856c71dd146100fb5780638796ba8c146101195780638da5cb5b14610149575b600080fd5b6100d360048036038101906100ce91906113bc565b61023c565b005b6100ef60048036038101906100ea91906112ef565b6102d8565b005b6100f9610375565b005b61010361050c565b60405161011091906116c1565b60405180910390f35b610133600480360381019061012e919061136a565b6105bd565b60405161014091906117bc565b60405180910390f35b6101516105e1565b60405161015e919061161d565b60405180910390f35b61016f61060b565b005b61018b60048036038101906101869190611341565b610791565b60405161019891906117bc565b60405180910390f35b6101bb60048036038101906101b6919061136a565b6109dd565b6040516101c9929190611845565b60405180910390f35b6101ec60048036038101906101e7919061136a565b610a0e565b6040516101f9919061169f565b60405180910390f35b61021c600480360381019061021791906112ef565b610b47565b005b610226610b5b565b60405161023391906117bc565b60405180910390f35b7f000000000000000000000000000000000000000000000000000000000000000073ffffffffffffffffffffffffffffffffffffffff163373ffffffffffffffffffffffffffffffffffffffff16146102ca576040517f08c379a00000000000000000000000000000000000000000000000000000000081526004016102c19061179c565b60405180910390fd5b6102d48282610b61565b5050565b600160009054906101000a900473ffffffffffffffffffffffffffffffffffffffff1673ffffffffffffffffffffffffffffffffffffffff163373ffffffffffffffffffffffffffffffffffffffff161461033257600080fd5b806000806101000a81548173ffffffffffffffffffffffffffffffffffffffff021916908373ffffffffffffffffffffffffffffffffffffffff16021790555050565b600360009054906101000a900473ffffffffffffffffffffffffffffffffffffffff1673ffffffffffffffffffffffffffffffffffffffff163373ffffffffffffffffffffffffffffffffffffffff1614610405576040517f08c379a00000000000000000000000000000000000000000000000000000000081526004016103fc906116fc565b60405180910390fd5b6000600260009054906101000a900473ffffffffffffffffffffffffffffffffffffffff16905033600260006101000a81548173ffffffffffffffffffffffffffffffffffffffff021916908373ffffffffffffffffffffffffffffffffffffffff1602179055506000600360006101000a81548173ffffffffffffffffffffffffffffffffffffffff021916908373ffffffffffffffffffffffffffffffffffffffff1602179055503373ffffffffffffffffffffffffffffffffffffffff168173ffffffffffffffffffffffffffffffffffffffff167f8be0079c531659141344cd1fd0a4f28419497f9722a3daafe3b4186f6b6457e060405160405180910390a350565b6000600160009054906101000a900473ffffffffffffffffffffffffffffffffffffffff1673ffffffffffffffffffffffffffffffffffffffff163373ffffffffffffffffffffffffffffffffffffffff161461056857600080fd5b600073ffffffffffffffffffffffffffffffffffffffff1660008054906101000a900473ffffffffffffffffffffffffffffffffffffffff1673ffffffffffffffffffffffffffffffffffffffff1614905090565b600581815481106105cd57600080fd5b906000526020600020016000915090505481565b6000600260009054906101000a900473ffffffffffffffffffffffffffffffffffffffff16905090565b610613610caf565b6000600760069054906101000a900473ffffffffffffffffffffffffffffffffffffffff1690508073ffffffffffffffffffffffffffffffffffffffff1663a9059cbb338373ffffffffffffffffffffffffffffffffffffffff166370a08231306040518263ffffffff1660e01b8152600401610690919061161d565b60206040518083038186803b1580156106a857600080fd5b505afa1580156106bc573d6000803e3d6000fd5b505050506040513d601f19601f820116820180604052508101906106e09190611393565b6040518363ffffffff1660e01b81526004016106fd929190611638565b602060405180830381600087803b15801561071757600080fd5b505af115801561072b573d6000803e3d6000fd5b505050506040513d601f19601f8201168201806040525081019061074f9190611318565b61078e576040517f08c379a00000000000000000000000000000000000000000000000000000000081526004016107859061175c565b60405180910390fd5b50565b6000806107c5600760009054906101000a900463ffffffff16600760049054906101000a900461ffff168561ffff16610d41565b905060405180606001604052807f000000000000000000000000000000000000000000000000000000000000000073ffffffffffffffffffffffffffffffffffffffff16634306d354600760009054906101000a900463ffffffff166040518263ffffffff1660e01b815260040161083d9190611897565b60206040518083038186803b15801561085557600080fd5b505afa158015610869573d6000803e3d6000fd5b505050506040513d601f19601f8201168201806040525081019061088d9190611393565b8152602001600015158152602001600067ffffffffffffffff8111156108dc577f4e487b7100000000000000000000000000000000000000000000000000000000600052604160045260246000fd5b60405190808252806020026020018201604052801561090a5781602001602082028036833780820191505090505b50815250600460008381526020019081526020016000206000820151816000015560208201518160010160006101000a81548160ff0219169083151502179055506040820151816002019080519060200190610967929190611186565b509050506005819080600181540180825580915050600190039060005260206000200160009091909190915055806006819055507fcc58b13ad3eab50626c6a6300b1d139cd6ebb1688a7cced9461c2f7e762665ee81846040516109cc92919061186e565b60405180910390a180915050919050565b60046020528060005260406000206000915090508060000154908060010160009054906101000a900460ff16905082565b6060600060046000848152602001908152602001600020604051806060016040529081600082015481526020016001820160009054906101000a900460ff1615151515815260200160028201805480602002602001604051908101604052809291908181526020018280548015610aa457602002820191906000526020600020905b815481526020019060010190808311610a90575b50505050508152505090506000816000015111610af6576040517f08c379a0000000000000000000000000000000000000000000000000000000008152600401610aed906116dc565b60405180910390fd5b8060200151610b3a576040517f08c379a0000000000000000000000000000000000000000000000000000000008152600401610b319061173c565b60405180910390fd5b8060400151915050919050565b610b4f610caf565b610b5881610f85565b50565b60065481565b600060046000848152602001908152602001600020604051806060016040529081600082015481526020016001820160009054906101000a900460ff1615151515815260200160028201805480602002602001604051908101604052809291908181526020018280548015610bf557602002820191906000526020600020905b815481526020019060010190808311610be1575b50505050508152505090506000816000015111610c47576040517f08c379a0000000000000000000000000000000000000000000000000000000008152600401610c3e906116dc565b60405180910390fd5b6001816020019015159081151581525050818160400181905250610c6b83836110b4565b7f147eb1ff0c82f87f2b03e2c43f5a36488ff63ec6b730195fde4605f612f8db5183838360000151604051610ca293929190611807565b60405180910390a1505050565b600260009054906101000a900473ffffffffffffffffffffffffffffffffffffffff1673ffffffffffffffffffffffffffffffffffffffff163373ffffffffffffffffffffffffffffffffffffffff1614610d3f576040517f08c379a0000000000000000000000000000000000000000000000000000000008152600401610d369061171c565b60405180910390fd5b565b60007f000000000000000000000000000000000000000000000000000000000000000073ffffffffffffffffffffffffffffffffffffffff16634000aea07f00000000000000000000000000000000000000000000000000000000000000007f000000000000000000000000000000000000000000000000000000000000000073ffffffffffffffffffffffffffffffffffffffff16634306d354886040518263ffffffff1660e01b8152600401610df99190611897565b60206040518083038186803b158015610e1157600080fd5b505afa158015610e25573d6000803e3d6000fd5b505050506040513d601f19601f82011682018060405250810190610e499190611393565b878787604051602001610e5e939291906118b2565b6040516020818303038152906040526040518463ffffffff1660e01b8152600401610e8b93929190611661565b602060405180830381600087803b158015610ea557600080fd5b505af1158015610eb9573d6000803e3d6000fd5b505050506040513d601f19601f82011682018060405250810190610edd9190611318565b507f000000000000000000000000000000000000000000000000000000000000000073ffffffffffffffffffffffffffffffffffffffff1663fc2a88c36040518163ffffffff1660e01b815260040160206040518083038186803b158015610f4457600080fd5b505afa158015610f58573d6000803e3d6000fd5b505050506040513d601f19601f82011682018060405250810190610f7c9190611393565b90509392505050565b3373ffffffffffffffffffffffffffffffffffffffff168173ffffffffffffffffffffffffffffffffffffffff161415610ff4576040517f08c379a0000000000000000000000000000000000000000000000000000000008152600401610feb9061177c565b60405180910390fd5b80600360006101000a81548173ffffffffffffffffffffffffffffffffffffffff021916908373ffffffffffffffffffffffffffffffffffffffff1602179055508073ffffffffffffffffffffffffffffffffffffffff16600260009054906101000a900473ffffffffffffffffffffffffffffffffffffffff1673ffffffffffffffffffffffffffffffffffffffff167fed8889f560326eb138920d842192f0eb3dd22b4f139c87a2c57538e05bae127860405160405180910390a350565b60008054906101000a900473ffffffffffffffffffffffffffffffffffffffff1673ffffffffffffffffffffffffffffffffffffffff1663afce07c983836040518363ffffffff1660e01b815260040161110f9291906117d7565b600060405180830381600087803b15801561112957600080fd5b505af115801561113d573d6000803e3d6000fd5b5050505060008060006101000a81548173ffffffffffffffffffffffffffffffffffffffff021916908373ffffffffffffffffffffffffffffffffffffffff1602179055505050565b8280548282559060005260206000209081019282156111c2579160200282015b828111156111c15782518255916020019190600101906111a6565b5b5090506111cf91906111d3565b5090565b5b808211156111ec5760008160009055506001016111d4565b5090565b60006112036111fe8461190e565b6118e9565b9050808382526020820190508285602086028201111561122257600080fd5b60005b85811015611252578161123888826112c5565b845260208401935060208301925050600181019050611225565b5050509392505050565b60008135905061126b81611c01565b92915050565b600082601f83011261128257600080fd5b81356112928482602086016111f0565b91505092915050565b6000815190506112aa81611c18565b92915050565b6000813590506112bf81611c2f565b92915050565b6000813590506112d481611c46565b92915050565b6000815190506112e981611c46565b92915050565b60006020828403121561130157600080fd5b600061130f8482850161125c565b91505092915050565b60006020828403121561132a57600080fd5b60006113388482850161129b565b91505092915050565b60006020828403121561135357600080fd5b6000611361848285016112b0565b91505092915050565b60006020828403121561137c57600080fd5b600061138a848285016112c5565b91505092915050565b6000602082840312156113a557600080fd5b60006113b3848285016112da565b91505092915050565b600080604083850312156113cf57600080fd5b60006113dd858286016112c5565b925050602083013567ffffffffffffffff8111156113fa57600080fd5b61140685828601611271565b9150509250929050565b600061141c83836115f0565b60208301905092915050565b611431816119a0565b82525050565b60006114428261194a565b61144c818561196d565b93506114578361193a565b8060005b8381101561148857815161146f8882611410565b975061147a83611960565b92505060018101905061145b565b5085935050505092915050565b61149e816119b2565b82525050565b60006114af82611955565b6114b9818561197e565b93506114c9818560208601611a18565b6114d281611aab565b840191505092915050565b60006114ea60118361198f565b91506114f582611abc565b602082019050919050565b600061150d60168361198f565b915061151882611ae5565b602082019050919050565b600061153060168361198f565b915061153b82611b0e565b602082019050919050565b600061155360268361198f565b915061155e82611b37565b604082019050919050565b600061157660128361198f565b915061158182611b86565b602082019050919050565b600061159960178361198f565b91506115a482611baf565b602082019050919050565b60006115bc601f8361198f565b91506115c782611bd8565b602082019050919050565b6115db816119be565b82525050565b6115ea81611a06565b82525050565b6115f9816119ec565b82525050565b611608816119ec565b82525050565b611617816119f6565b82525050565b60006020820190506116326000830184611428565b92915050565b600060408201905061164d6000830185611428565b61165a60208301846115ff565b9392505050565b60006060820190506116766000830186611428565b61168360208301856115ff565b818103604083015261169581846114a4565b9050949350505050565b600060208201905081810360008301526116b98184611437565b905092915050565b60006020820190506116d66000830184611495565b92915050565b600060208201905081810360008301526116f5816114dd565b9050919050565b6000602082019050818103600083015261171581611500565b9050919050565b6000602082019050818103600083015261173581611523565b9050919050565b6000602082019050818103600083015261175581611546565b9050919050565b6000602082019050818103600083015261177581611569565b9050919050565b600060208201905081810360008301526117958161158c565b9050919050565b600060208201905081810360008301526117b5816115af565b9050919050565b60006020820190506117d160008301846115ff565b92915050565b60006040820190506117ec60008301856115ff565b81810360208301526117fe8184611437565b90509392505050565b600060608201905061181c60008301866115ff565b818103602083015261182e8185611437565b905061183d60408301846115ff565b949350505050565b600060408201905061185a60008301856115ff565b6118676020830184611495565b9392505050565b600060408201905061188360008301856115ff565b61189060208301846115e1565b9392505050565b60006020820190506118ac600083018461160e565b92915050565b60006060820190506118c7600083018661160e565b6118d460208301856115d2565b6118e1604083018461160e565b949350505050565b60006118f3611904565b90506118ff8282611a4b565b919050565b6000604051905090565b600067ffffffffffffffff82111561192957611928611a7c565b5b602082029050602081019050919050565b6000819050602082019050919050565b600081519050919050565b600081519050919050565b6000602082019050919050565b600082825260208201905092915050565b600082825260208201905092915050565b600082825260208201905092915050565b60006119ab826119cc565b9050919050565b60008115159050919050565b600061ffff82169050919050565b600073ffffffffffffffffffffffffffffffffffffffff82169050919050565b6000819050919050565b600063ffffffff82169050919050565b6000611a11826119be565b9050919050565b60005b83811015611a36578082015181840152602081019050611a1b565b83811115611a45576000848401525b50505050565b611a5482611aab565b810181811067ffffffffffffffff82111715611a7357611a72611a7c565b5b80604052505050565b7f4e487b7100000000000000000000000000000000000000000000000000000000600052604160045260246000fd5b6000601f19601f8301169050919050565b7f72657175657374206e6f7420666f756e64000000000000000000000000000000600082015250565b7f4d7573742062652070726f706f736564206f776e657200000000000000000000600082015250565b7f4f6e6c792063616c6c61626c65206279206f776e657200000000000000000000600082015250565b7f436861696e6c696e6b2072616e646f6d206e756d62657273206e6f742072656160008201527f6479207965740000000000000000000000000000000000000000000000000000602082015250565b7f556e61626c6520746f207472616e736665720000000000000000000000000000600082015250565b7f43616e6e6f74207472616e7366657220746f2073656c66000000000000000000600082015250565b7f6f6e6c792056524620563220777261707065722063616e2066756c66696c6c00600082015250565b611c0a816119a0565b8114611c1557600080fd5b50565b611c21816119b2565b8114611c2c57600080fd5b50565b611c38816119be565b8114611c4357600080fd5b50565b611c4f816119ec565b8114611c5a57600080fd5b5056fea26469706673582212202a54f594b9dfe55a9bea4f20fa323df57e3c5a6058ac0e4b01105395a2f8b09e64736f6c63430008040033",
  "linkReferences": {},
  "deployedLinkReferences": {}
}