{
  "_format": "hh-sol-artifact-1",
  "contractName": "YoloRandomMockup",
  "sourceName": "contracts/YoloRandom.sol",
  "abi": [
    {
      "inputs": [
        {
          "internalType": "address",
          "name": "dealer_",
          "type": "address"
        }
      ],
      "stateMutability": "nonpayable",
      "type": "constructor"
    },
    {
      "anonymous": false,
      "inputs": [
        {
          "indexed": false,
          "internalType": "bytes32",
          "name": "",
          "type": "bytes32"
        }
      ],
      "name": "RandomNumberRequested",
      "type": "event"
    },
    {
      "inputs": [],
      "name": "fulfillRandomness",
      "outputs": [],
      "stateMutability": "nonpayable",
      "type": "function"
    },
    {
      "inputs": [
        {
          "internalType": "bytes32",
          "name": "requestId",
          "type": "bytes32"
        }
      ],
      "name": "getRandomNumber",
      "outputs": [
        {
          "internalType": "uint256",
          "name": "",
          "type": "uint256"
        }
      ],
      "stateMutability": "view",
      "type": "function"
    },
    {
      "inputs": [],
      "name": "isAvailable",
      "outputs": [
        {
          "internalType": "bool",
          "name": "",
          "type": "bool"
        }
      ],
      "stateMutability": "view",
      "type": "function"
    },
    {
      "inputs": [],
      "name": "requestRandomNumber",
      "outputs": [
        {
          "internalType": "bytes32",
          "name": "",
          "type": "bytes32"
        }
      ],
      "stateMutability": "nonpayable",
      "type": "function"
    },
    {
      "inputs": [
        {
          "internalType": "address",
          "name": "consumer_",
          "type": "address"
        }
      ],
      "name": "setConsumer",
      "outputs": [],
      "stateMutability": "nonpayable",
      "type": "function"
    }
  ],
  "bytecode": "0x608060405234801561001057600080fd5b5060405161089938038061089983398181016040528101906100329190610090565b8080600160006101000a81548173ffffffffffffffffffffffffffffffffffffffff021916908373ffffffffffffffffffffffffffffffffffffffff1602179055505050610102565b60008151905061008a816100eb565b92915050565b6000602082840312156100a257600080fd5b60006100b08482850161007b565b91505092915050565b60006100c4826100cb565b9050919050565b600073ffffffffffffffffffffffffffffffffffffffff82169050919050565b6100f4816100b9565b81146100ff57600080fd5b50565b610788806101116000396000f3fe608060405234801561001057600080fd5b50600436106100575760003560e01c8063423fef7e1461005c57806363a579d514610066578063856c71dd146100825780638678a7b2146100a0578063cb923ccd146100be575b600080fd5b6100646100ee565b005b610080600480360381019061007b91906104f7565b61011c565b005b61008a6101b9565b60405161009791906105bf565b60405180910390f35b6100a861026a565b6040516100b591906105da565b60405180910390f35b6100d860048036038101906100d39190610520565b61035f565b6040516100e59190610657565b60405180910390f35b61011a7f74657374496400000000000000000000000000000000000000000000000000006002546103fb565b565b600160009054906101000a900473ffffffffffffffffffffffffffffffffffffffff1673ffffffffffffffffffffffffffffffffffffffff163373ffffffffffffffffffffffffffffffffffffffff161461017657600080fd5b806000806101000a81548173ffffffffffffffffffffffffffffffffffffffff021916908373ffffffffffffffffffffffffffffffffffffffff16021790555050565b6000600160009054906101000a900473ffffffffffffffffffffffffffffffffffffffff1673ffffffffffffffffffffffffffffffffffffffff163373ffffffffffffffffffffffffffffffffffffffff161461021557600080fd5b600073ffffffffffffffffffffffffffffffffffffffff1660008054906101000a900473ffffffffffffffffffffffffffffffffffffffff1673ffffffffffffffffffffffffffffffffffffffff1614905090565b60008060009054906101000a900473ffffffffffffffffffffffffffffffffffffffff1673ffffffffffffffffffffffffffffffffffffffff163373ffffffffffffffffffffffffffffffffffffffff16146102fb576040517f08c379a00000000000000000000000000000000000000000000000000000000081526004016102f29061061e565b60405180910390fd5b61029a6002819055507f1f528edfe7e851f18127c23c0853d428822bcefe59219e6afb0c6f25ffe9d5106040516103319061063e565b60405180910390a17f7465737449640000000000000000000000000000000000000000000000000000905090565b60007f746573744964000000000000000000000000000000000000000000000000000082146103b7577f4e487b7100000000000000000000000000000000000000000000000000000000600052600160045260246000fd5b600060025414156103f1577f4e487b7100000000000000000000000000000000000000000000000000000000600052600160045260246000fd5b6002549050919050565b60008054906101000a900473ffffffffffffffffffffffffffffffffffffffff1673ffffffffffffffffffffffffffffffffffffffff16639801748983836040518363ffffffff1660e01b81526004016104569291906105f5565b600060405180830381600087803b15801561047057600080fd5b505af1158015610484573d6000803e3d6000fd5b5050505060008060006101000a81548173ffffffffffffffffffffffffffffffffffffffff021916908373ffffffffffffffffffffffffffffffffffffffff1602179055505050565b6000813590506104dc81610724565b92915050565b6000813590506104f18161073b565b92915050565b60006020828403121561050957600080fd5b6000610517848285016104cd565b91505092915050565b60006020828403121561053257600080fd5b6000610540848285016104e2565b91505092915050565b61055281610695565b82525050565b610561816106a1565b82525050565b6000610574602383610672565b915061057f826106d5565b604082019050919050565b7f7465737449640000000000000000000000000000000000000000000000000000815250565b6105b9816106cb565b82525050565b60006020820190506105d46000830184610549565b92915050565b60006020820190506105ef6000830184610558565b92915050565b600060408201905061060a6000830185610558565b61061760208301846105b0565b9392505050565b6000602082019050818103600083015261063781610567565b9050919050565b60006020820190506106526000830161058a565b919050565b600060208201905061066c60008301846105b0565b92915050565b600082825260208201905092915050565b600061068e826106ab565b9050919050565b60008115159050919050565b6000819050919050565b600073ffffffffffffffffffffffffffffffffffffffff82169050919050565b6000819050919050565b7f6f6e6c7920596f6c6f4c6f742063616e206578656375746520596f6c6f52616e60008201527f646f6d0000000000000000000000000000000000000000000000000000000000602082015250565b61072d81610683565b811461073857600080fd5b50565b610744816106a1565b811461074f57600080fd5b5056fea26469706673582212200cc5f3b722dafaf439937cf967d867a75b108ab51b4c61524f2a58cb80f9829364736f6c63430008040033",
  "linkReferences": {},
  "deployedLinkReferences": {}
}